{
  "deployments": [
    {
      "transactions": [
        {
          "hash": "0x20ac44b5e8292cdb8c7cc85bd3b4330ccc549927aaa2811be22ff3c42d436834",
          "transactionType": "CALL",
          "contractName": null,
          "contractAddress": "0xade3772ff33bae674ebe870cb4034c8a49c06a30",
          "function": "setPeer(uint32,bytes32)",
          "arguments": [
            "40245",
            "0x000000000000000000000000c7a73d1dc34531826e4a4b52a6d43331f95f21aa"
          ],
          "transaction": {
            "from": "0x8888111f8d7b999009a88224ce5acfc8fa500ddc",
            "to": "0xade3772ff33bae674ebe870cb4034c8a49c06a30",
            "gas": "0x1102d",
            "value": "0x0",
            "input": "0x3400288b0000000000000000000000000000000000000000000000000000000000009d35000000000000000000000000c7a73d1dc34531826e4a4b52a6d43331f95f21aa",
            "nonce": "0x18",
            "chainId": "0xaa36a7"
          },
          "additionalContracts": [],
          "isFixedGasLimit": false
        }
      ],
      "receipts": [
        {
          "status": "0x1",
          "cumulativeGasUsed": "0x7d8783",
          "logs": [
            {
              "address": "0xade3772ff33bae674ebe870cb4034c8a49c06a30",
              "topics": [
                "0x238399d427b947898edb290f5ff0f9109849b1c3ba196a42e35f00c50a54b98b"
              ],
              "data": "0x0000000000000000000000000000000000000000000000000000000000009d35000000000000000000000000c7a73d1dc34531826e4a4b52a6d43331f95f21aa",
              "blockHash": "0x5b3ec21fc56cf35ef56e21e6e497772ffecd9c4a474b0d62eaf5471bf11097bf",
              "blockNumber": "0x66ba17",
              "transactionHash": "0x20ac44b5e8292cdb8c7cc85bd3b4330ccc549927aaa2811be22ff3c42d436834",
              "transactionIndex": "0x24",
              "logIndex": "0x3b",
              "removed": false
            }
          ],
          "logsBloom": "0x00000000000000000000000000000000000000000000000000000000000000000000000080000000000000000000000000000000000000000800000000000000000000000000000000000000000000000000000000000000000000000000000000000000000000000000000000000000000000000000000000000000000000000000000000000000000000000000000000000000000000000000000000000000000000000000000000000000000000000000002000000000000002000000000000000000000000000000000000000000000000000000000000040000000000000000000000000000000000000020000000000000000000000000000000000000",
          "type": "0x2",
          "transactionHash": "0x20ac44b5e8292cdb8c7cc85bd3b4330ccc549927aaa2811be22ff3c42d436834",
          "transactionIndex": "0x24",
          "blockHash": "0x5b3ec21fc56cf35ef56e21e6e497772ffecd9c4a474b0d62eaf5471bf11097bf",
          "blockNumber": "0x66ba17",
          "gasUsed": "0xba1b",
          "effectiveGasPrice": "0x5b8cb0f9e",
          "from": "0x8888111f8d7b999009a88224ce5acfc8fa500ddc",
          "to": "0xade3772ff33bae674ebe870cb4034c8a49c06a30",
          "contractAddress": null
        }
      ],
      "libraries": [],
      "pending": [],
      "returns": {},
      "timestamp": 1726909453,
      "chain": 11155111,
      "commit": "57dd6ef"
    },
    {
      "transactions": [
        {
          "hash": "0x72b3b50f74a8e768ada3cdcdcde158ee6b3e34536c4218bf57e93500d0b336c6",
          "transactionType": "CALL",
          "contractName": null,
          "contractAddress": "0xc7a73d1dc34531826e4a4b52a6d43331f95f21aa",
          "function": "setPeer(uint32,bytes32)",
          "arguments": [
            "40161",
            "0x000000000000000000000000ade3772ff33bae674ebe870cb4034c8a49c06a30"
          ],
          "transaction": {
            "from": "0x8888111f8d7b999009a88224ce5acfc8fa500ddc",
            "to": "0xc7a73d1dc34531826e4a4b52a6d43331f95f21aa",
            "gas": "0x1102d",
            "value": "0x0",
            "input": "0x3400288b0000000000000000000000000000000000000000000000000000000000009ce1000000000000000000000000ade3772ff33bae674ebe870cb4034c8a49c06a30",
            "nonce": "0x4",
            "chainId": "0x14a34"
          },
          "additionalContracts": [],
          "isFixedGasLimit": false
        }
      ],
      "receipts": [
        {
          "status": "0x1",
          "cumulativeGasUsed": "0x135e8b",
          "logs": [
            {
              "address": "0xc7a73d1dc34531826e4a4b52a6d43331f95f21aa",
              "topics": [
                "0x238399d427b947898edb290f5ff0f9109849b1c3ba196a42e35f00c50a54b98b"
              ],
              "data": "0x0000000000000000000000000000000000000000000000000000000000009ce1000000000000000000000000ade3772ff33bae674ebe870cb4034c8a49c06a30",
              "blockHash": "0xbf6ae16ab5cee7a06a510fe2ddf404919dd3353112a54988ff92738cdb38a274",
              "blockNumber": "0xed96a1",
              "transactionHash": "0x72b3b50f74a8e768ada3cdcdcde158ee6b3e34536c4218bf57e93500d0b336c6",
              "transactionIndex": "0x10",
              "logIndex": "0x9",
              "removed": false
            }
          ],
          "logsBloom": "0x00000000000000000000000000000000000000000000000000000000000000000000000000000000000000000000000000000200000000000800000000000000000000000000000000000000000000000000000000000000000000000000000000000000000000000000000000000000000000000000000000000000000000000000000000000000000000000000000000000000000000000000000000000000000000000000000000000000000000000000000000000000000002000000000000000000000000000000000000000000000000000000000000040000000008000000000000000004000000000000000000000000000000000000000000000000",
          "type": "0x2",
          "transactionHash": "0x72b3b50f74a8e768ada3cdcdcde158ee6b3e34536c4218bf57e93500d0b336c6",
          "transactionIndex": "0x10",
          "blockHash": "0xbf6ae16ab5cee7a06a510fe2ddf404919dd3353112a54988ff92738cdb38a274",
          "blockNumber": "0xed96a1",
          "gasUsed": "0xba1b",
          "effectiveGasPrice": "0x8a745",
          "from": "0x8888111f8d7b999009a88224ce5acfc8fa500ddc",
          "to": "0xc7a73d1dc34531826e4a4b52a6d43331f95f21aa",
          "contractAddress": null,
          "l1BaseFeeScalar": "0x44d",
          "l1BlobBaseFee": "0x1",
          "l1BlobBaseFeeScalar": "0xa118b",
          "l1Fee": "0x7e3732145",
          "l1GasPrice": "0x47a5f596d",
          "l1GasUsed": "0x640"
        }
      ],
      "libraries": [],
      "pending": [],
      "returns": {},
      "timestamp": 1726909454,
      "chain": 84532,
      "commit": "57dd6ef"
    }
  ],
  "timestamp": 1726909480
}