{
  "transactions": [
    {
      "hash": "0x0ccb2afd9c3da218af96854bda755f5e70b77947f1b02365fa3bd2209631d6ac",
      "transactionType": "CALL",
      "contractName": null,
      "contractAddress": "0x11545fe290a922c557274d4b53ef3880175d40d8",
      "function": "setPeer(uint32,bytes32)",
      "arguments": [
        "40245",
        "0x0000000000000000000000004cd5d8ec1e9c3909d14f378f3348f3ab0a04e172"
      ],
      "transaction": {
        "from": "0x8888111f8d7b999009a88224ce5acfc8fa500ddc",
        "to": "0x11545fe290a922c557274d4b53ef3880175d40d8",
        "gas": "0x95ae",
        "value": "0x0",
        "input": "0x3400288b0000000000000000000000000000000000000000000000000000000000009d350000000000000000000000004cd5d8ec1e9c3909d14f378f3348f3ab0a04e172",
        "nonce": "0x25",
        "chainId": "0xaa36a7"
      },
      "additionalContracts": [],
      "isFixedGasLimit": false
    }
  ],
  "receipts": [
    {
      "status": "0x1",
      "cumulativeGasUsed": "0xbb1aeb",
      "logs": [
        {
          "address": "0x11545fe290a922c557274d4b53ef3880175d40d8",
          "topics": [
            "0x238399d427b947898edb290f5ff0f9109849b1c3ba196a42e35f00c50a54b98b"
          ],
          "data": "0x0000000000000000000000000000000000000000000000000000000000009d350000000000000000000000004cd5d8ec1e9c3909d14f378f3348f3ab0a04e172",
          "blockHash": "0xa28b378d3787b7a9c273ecb66b59c27709e9ce0d71b40cb511be6cad39d432b4",
          "blockNumber": "0x66bec9",
          "transactionHash": "0x0ccb2afd9c3da218af96854bda755f5e70b77947f1b02365fa3bd2209631d6ac",
          "transactionIndex": "0x51",
          "logIndex": "0x86",
          "removed": false
        }
      ],
      "logsBloom": "0x00000000000000000000000000000000000000000000000000000000000000000000000000000000000000000000000000000000000000000900000000000000000000000000000000000000000000000000000000000000000000000000000000000000000000000000000000000000000000000000000000000000000000000000000000000000800000000000000000000000000000000000000000000010000000000000000000000000000000000000000000000000000002000000000000000000000000000000000000000000000000000000000000040000000000000000000000000000000000000000000000000000000000000000000000000000",
      "type": "0x2",
      "transactionHash": "0x0ccb2afd9c3da218af96854bda755f5e70b77947f1b02365fa3bd2209631d6ac",
      "transactionIndex": "0x51",
      "blockHash": "0xa28b378d3787b7a9c273ecb66b59c27709e9ce0d71b40cb511be6cad39d432b4",
      "blockNumber": "0x66bec9",
      "gasUsed": "0x6c5f",
      "effectiveGasPrice": "0x59b391167",
      "from": "0x8888111f8d7b999009a88224ce5acfc8fa500ddc",
      "to": "0x11545fe290a922c557274d4b53ef3880175d40d8",
      "contractAddress": null
    }
  ],
  "libraries": [],
  "pending": [],
  "returns": {},
  "timestamp": 1726926774,
  "chain": 11155111,
  "commit": "57dd6ef"
}