{
  "transactions": [
    {
      "hash": "0x4010b756c7d702087932ec15d1c9b3b4d8db41cd1823e16d65f1493afea77e08",
      "transactionType": "CALL",
      "contractName": "LayerZero",
      "contractAddress": "0xcf06f7bc9d3cd7b068f059ab4c19f237f3a40f8c",
      "function": "send(uint32,uint128,address)",
      "arguments": [
        "40245",
        "1000",
        "0x1234A41BF51Fb34877317e66A322586D67b00C2C"
      ],
      "transaction": {
        "from": "0x8888111f8d7b999009a88224ce5acfc8fa500ddc",
        "to": "0xcf06f7bc9d3cd7b068f059ab4c19f237f3a40f8c",
        "gas": "0x459c1",
        "value": "0x527bb933277d",
        "input": "0x985c492e0000000000000000000000000000000000000000000000000000000000009d3500000000000000000000000000000000000000000000000000000000000003e80000000000000000000000001234a41bf51fb34877317e66a322586d67b00c2c",
        "nonce": "0x4",
        "chainId": "0xaa36a7"
      },
      "additionalContracts": [],
      "isFixedGasLimit": false
    }
  ],
  "receipts": [
    {
      "status": "0x1",
      "cumulativeGasUsed": "0x52aebd",
      "logs": [
        {
          "address": "0xcc1ae8cf5d3904cef3360a9532b477529b177cce",
          "topics": [
            "0x61ed099e74a97a1d7f8bb0952a88ca8b7b8ebd00c126ea04671f92a81213318a"
          ],
          "data": "0x000000000000000000000000718b92b5cb0a5552039b593faf724d182a881eda00000000000000000000000000000000000000000000000000004e7b946183ca",
          "blockHash": "0x8671ca12bc93d6f6f2725e6a11e6618e2dbc9a336641d2a709c8cb7fbf05c756",
          "blockNumber": "0x66a985",
          "transactionHash": "0x4010b756c7d702087932ec15d1c9b3b4d8db41cd1823e16d65f1493afea77e08",
          "transactionIndex": "0x38",
          "logIndex": "0x44",
          "removed": false
        },
        {
          "address": "0xcc1ae8cf5d3904cef3360a9532b477529b177cce",
          "topics": [
            "0x07ea52d82345d6e838192107d8fd7123d9c2ec8e916cd0aad13fd2b60db24644"
          ],
          "data": "0x000000000000000000000000000000000000000000000000000000000000006000000000000000000000000000000000000000000000000000000000000000a000000000000000000000000000000000000000000000000000000000000000c000000000000000000000000000000000000000000000000000000000000000010000000000000000000000008eebf8b423b73bfca51a1db4b7354aa0bfca9193000000000000000000000000000000000000000000000000000000000000000000000000000000000000000000000000000000000000000000000000000000010000000000000000000000000000000000000000000000000000040024d1a3b3",
          "blockHash": "0x8671ca12bc93d6f6f2725e6a11e6618e2dbc9a336641d2a709c8cb7fbf05c756",
          "blockNumber": "0x66a985",
          "transactionHash": "0x4010b756c7d702087932ec15d1c9b3b4d8db41cd1823e16d65f1493afea77e08",
          "transactionIndex": "0x38",
          "logIndex": "0x45",
          "removed": false
        },
        {
          "address": "0x6edce65403992e310a62460808c4b910d972f10f",
          "topics": [
            "0x1ab700d4ced0c005b164c0f789fd09fcbb0156d4c2041b8a3bfbcd961cd1567f"
          ],
          "data": "0x00000000000000000000000000000000000000000000000000000000000000600000000000000000000000000000000000000000000000000000000000000100000000000000000000000000cc1ae8cf5d3904cef3360a9532b477529b177cce000000000000000000000000000000000000000000000000000000000000007101000000000000000200009ce1000000000000000000000000cf06f7bc9d3cd7b068f059ab4c19f237f3a40f8c00009d35000000000000000000000000cf06f7bc9d3cd7b068f059ab4c19f237f3a40f8cd2093df17b62f0714d86f080b5f38e12ddfcba385edfffc47226913e56a34e54000000000000000000000000000000000000000000000000000000000000000000000000000000000000000000004a00030100110100000000000000000000000000030d4001003102000000000000000000000000000003e80000000000000000000000001234a41bf51fb34877317e66a322586d67b00c2c00000000000000000000000000000000000000000000",
          "blockHash": "0x8671ca12bc93d6f6f2725e6a11e6618e2dbc9a336641d2a709c8cb7fbf05c756",
          "blockNumber": "0x66a985",
          "transactionHash": "0x4010b756c7d702087932ec15d1c9b3b4d8db41cd1823e16d65f1493afea77e08",
          "transactionIndex": "0x38",
          "logIndex": "0x46",
          "removed": false
        }
      ],
      "logsBloom": "0x00000000000000000000000000000000000000000000000000000000000100000000000000000000200000000000000000000000000000000000000000000000000000000000000000000000000000000000000000000000000000000000000000000000000000008200000000000000000000000000000000000000000000000000000000000020000000080000000000000000000000000000000000000000000000008000000000100000000000000000000000400000000440000000000000000000000000000000000000000000000000080000000000000000000000000000040000000000000000000000002000000000000000000000000000000020",
      "type": "0x2",
      "transactionHash": "0x4010b756c7d702087932ec15d1c9b3b4d8db41cd1823e16d65f1493afea77e08",
      "transactionIndex": "0x38",
      "blockHash": "0x8671ca12bc93d6f6f2725e6a11e6618e2dbc9a336641d2a709c8cb7fbf05c756",
      "blockNumber": "0x66a985",
      "gasUsed": "0x32657",
      "effectiveGasPrice": "0x332ac32fe",
      "from": "0x8888111f8d7b999009a88224ce5acfc8fa500ddc",
      "to": "0xcf06f7bc9d3cd7b068f059ab4c19f237f3a40f8c",
      "contractAddress": null
    }
  ],
  "libraries": [],
  "pending": [],
  "returns": {},
  "timestamp": 1726848175,
  "chain": 11155111,
  "commit": "4e563d5"
}