{
  "transactions": [
    {
      "hash": "0x678a85ba3721aecd34d8e49acd7b97fdbc927bfdb85e688a5d5a5c84ec67ef59",
      "transactionType": "CALL",
      "contractName": null,
      "contractAddress": "0x11545fe290a922c557274d4b53ef3880175d40d8",
      "function": "setPeer(uint32,bytes32)",
      "arguments": [
        "40322",
        "0x000000000000000000000000cf06f7bc9d3cd7b068f059ab4c19f237f3a40f8c"
      ],
      "transaction": {
        "from": "0x8888111f8d7b999009a88224ce5acfc8fa500ddc",
        "to": "0x11545fe290a922c557274d4b53ef3880175d40d8",
        "gas": "0x95ae",
        "value": "0x0",
        "input": "0x3400288b0000000000000000000000000000000000000000000000000000000000009d82000000000000000000000000cf06f7bc9d3cd7b068f059ab4c19f237f3a40f8c",
        "nonce": "0x29",
        "chainId": "0xaa36a7"
      },
      "additionalContracts": [],
      "isFixedGasLimit": false
    }
  ],
  "receipts": [
    {
      "status": "0x1",
      "cumulativeGasUsed": "0x7ecad1",
      "logs": [
        {
          "address": "0x11545fe290a922c557274d4b53ef3880175d40d8",
          "topics": [
            "0x238399d427b947898edb290f5ff0f9109849b1c3ba196a42e35f00c50a54b98b"
          ],
          "data": "0x0000000000000000000000000000000000000000000000000000000000009d82000000000000000000000000cf06f7bc9d3cd7b068f059ab4c19f237f3a40f8c",
          "blockHash": "0x9c9e4bfd10eb9e600d298a46ca5c905f71982911b8e725b7fb2c5c43cba65cc8",
          "blockNumber": "0x66bed2",
          "transactionHash": "0x678a85ba3721aecd34d8e49acd7b97fdbc927bfdb85e688a5d5a5c84ec67ef59",
          "transactionIndex": "0x40",
          "logIndex": "0x5d",
          "removed": false
        }
      ],
      "logsBloom": "0x00000000000000000000000000000000000000000000000000000000000000000000000000000000000000000000000000000000000000000900000000000000000000000000000000000000000000000000000000000000000000000000000000000000000000000000000000000000000000000000000000000000000000000000000000000000800000000000000000000000000000000000000000000010000000000000000000000000000000000000000000000000000002000000000000000000000000000000000000000000000000000000000000040000000000000000000000000000000000000000000000000000000000000000000000000000",
      "type": "0x2",
      "transactionHash": "0x678a85ba3721aecd34d8e49acd7b97fdbc927bfdb85e688a5d5a5c84ec67ef59",
      "transactionIndex": "0x40",
      "blockHash": "0x9c9e4bfd10eb9e600d298a46ca5c905f71982911b8e725b7fb2c5c43cba65cc8",
      "blockNumber": "0x66bed2",
      "gasUsed": "0x6c5f",
      "effectiveGasPrice": "0x687cfc32d",
      "from": "0x8888111f8d7b999009a88224ce5acfc8fa500ddc",
      "to": "0x11545fe290a922c557274d4b53ef3880175d40d8",
      "contractAddress": null
    }
  ],
  "libraries": [],
  "pending": [],
  "returns": {},
  "timestamp": 1726926881,
  "chain": 11155111,
  "commit": "57dd6ef"
}