{
  "transactions": [
    {
      "hash": "0x9434af586d0f4d83585962377c5c9067189845bdbc9749ac49a703abc79e0837",
      "transactionType": "CALL",
      "contractName": "LayerZero",
      "contractAddress": "0xcf06f7bc9d3cd7b068f059ab4c19f237f3a40f8c",
      "function": "send(uint32,uint128,address)",
      "arguments": [
        "40245",
        "1000",
        "0x1234A41BF51Fb34877317e66A322586D67b00C2C"
      ],
      "transaction": {
        "from": "0x8888111f8d7b999009a88224ce5acfc8fa500ddc",
        "to": "0xcf06f7bc9d3cd7b068f059ab4c19f237f3a40f8c",
        "gas": "0x4fcf5",
        "value": "0x527bb933277d",
        "input": "0x985c492e0000000000000000000000000000000000000000000000000000000000009d3500000000000000000000000000000000000000000000000000000000000003e80000000000000000000000001234a41bf51fb34877317e66a322586d67b00c2c",
        "nonce": "0x3",
        "chainId": "0xaa36a7"
      },
      "additionalContracts": [],
      "isFixedGasLimit": false
    }
  ],
  "receipts": [
    {
      "status": "0x1",
      "cumulativeGasUsed": "0x7f5878",
      "logs": [
        {
          "address": "0xcc1ae8cf5d3904cef3360a9532b477529b177cce",
          "topics": [
            "0x61ed099e74a97a1d7f8bb0952a88ca8b7b8ebd00c126ea04671f92a81213318a"
          ],
          "data": "0x000000000000000000000000718b92b5cb0a5552039b593faf724d182a881eda00000000000000000000000000000000000000000000000000004e7b946183ca",
          "blockHash": "0x2433e90d86fe1d093b9ca473943b717f1698d0d7141e226b63ad73952f275ed7",
          "blockNumber": "0x66a960",
          "transactionHash": "0x9434af586d0f4d83585962377c5c9067189845bdbc9749ac49a703abc79e0837",
          "transactionIndex": "0x40",
          "logIndex": "0x49",
          "removed": false
        },
        {
          "address": "0xcc1ae8cf5d3904cef3360a9532b477529b177cce",
          "topics": [
            "0x07ea52d82345d6e838192107d8fd7123d9c2ec8e916cd0aad13fd2b60db24644"
          ],
          "data": "0x000000000000000000000000000000000000000000000000000000000000006000000000000000000000000000000000000000000000000000000000000000a000000000000000000000000000000000000000000000000000000000000000c000000000000000000000000000000000000000000000000000000000000000010000000000000000000000008eebf8b423b73bfca51a1db4b7354aa0bfca9193000000000000000000000000000000000000000000000000000000000000000000000000000000000000000000000000000000000000000000000000000000010000000000000000000000000000000000000000000000000000040024d1a3b3",
          "blockHash": "0x2433e90d86fe1d093b9ca473943b717f1698d0d7141e226b63ad73952f275ed7",
          "blockNumber": "0x66a960",
          "transactionHash": "0x9434af586d0f4d83585962377c5c9067189845bdbc9749ac49a703abc79e0837",
          "transactionIndex": "0x40",
          "logIndex": "0x4a",
          "removed": false
        },
        {
          "address": "0x6edce65403992e310a62460808c4b910d972f10f",
          "topics": [
            "0x1ab700d4ced0c005b164c0f789fd09fcbb0156d4c2041b8a3bfbcd961cd1567f"
          ],
          "data": "0x00000000000000000000000000000000000000000000000000000000000000600000000000000000000000000000000000000000000000000000000000000100000000000000000000000000cc1ae8cf5d3904cef3360a9532b477529b177cce000000000000000000000000000000000000000000000000000000000000007101000000000000000100009ce1000000000000000000000000cf06f7bc9d3cd7b068f059ab4c19f237f3a40f8c00009d35000000000000000000000000cf06f7bc9d3cd7b068f059ab4c19f237f3a40f8c1d604bd9a87cb6efe2ce5a977257af06617e80a16506126bc485a21b3c4fb910000000000000000000000000000000000000000000000000000000000000000000000000000000000000000000004a00030100110100000000000000000000000000030d4001003102000000000000000000000000000003e80000000000000000000000001234a41bf51fb34877317e66a322586d67b00c2c00000000000000000000000000000000000000000000",
          "blockHash": "0x2433e90d86fe1d093b9ca473943b717f1698d0d7141e226b63ad73952f275ed7",
          "blockNumber": "0x66a960",
          "transactionHash": "0x9434af586d0f4d83585962377c5c9067189845bdbc9749ac49a703abc79e0837",
          "transactionIndex": "0x40",
          "logIndex": "0x4b",
          "removed": false
        }
      ],
      "logsBloom": "0x00000000000000000000000000000000000000000000000000000000000100000000000000000000200000000000000000000000000000000000000000000000000000000000000000000000000000000000000000000000000000000000000000000000000000008200000000000000000000000000000000000000000000000000000000000020000000080000000000000000000000000000000000000000000000008000000000100000000000000000000000400000000440000000000000000000000000000000000000000000000000080000000000000000000000000000040000000000000000000000002000000000000000000000000000000020",
      "type": "0x2",
      "transactionHash": "0x9434af586d0f4d83585962377c5c9067189845bdbc9749ac49a703abc79e0837",
      "transactionIndex": "0x40",
      "blockHash": "0x2433e90d86fe1d093b9ca473943b717f1698d0d7141e226b63ad73952f275ed7",
      "blockNumber": "0x66a960",
      "gasUsed": "0x36923",
      "effectiveGasPrice": "0x4212a106d",
      "from": "0x8888111f8d7b999009a88224ce5acfc8fa500ddc",
      "to": "0xcf06f7bc9d3cd7b068f059ab4c19f237f3a40f8c",
      "contractAddress": null
    }
  ],
  "libraries": [],
  "pending": [],
  "returns": {},
  "timestamp": 1726847692,
  "chain": 11155111,
  "commit": "4e563d5"
}