{
  "transactions": [
    {
      "hash": "0x1f1faea9434197f413f55f62a50093943f95f3bd447dd4104b572903088e1f72",
      "transactionType": "CALL",
      "contractName": null,
      "contractAddress": "0x11545fe290a922c557274d4b53ef3880175d40d8",
      "function": "setPeer(uint32,bytes32)",
      "arguments": [
        "40231",
        "0x000000000000000000000000cf06f7bc9d3cd7b068f059ab4c19f237f3a40f8c"
      ],
      "transaction": {
        "from": "0x8888111f8d7b999009a88224ce5acfc8fa500ddc",
        "to": "0x11545fe290a922c557274d4b53ef3880175d40d8",
        "gas": "0x95ae",
        "value": "0x0",
        "input": "0x3400288b0000000000000000000000000000000000000000000000000000000000009d27000000000000000000000000cf06f7bc9d3cd7b068f059ab4c19f237f3a40f8c",
        "nonce": "0x2c",
        "chainId": "0xaa36a7"
      },
      "additionalContracts": [],
      "isFixedGasLimit": false
    }
  ],
  "receipts": [
    {
      "status": "0x1",
      "cumulativeGasUsed": "0xdef280",
      "logs": [
        {
          "address": "0x11545fe290a922c557274d4b53ef3880175d40d8",
          "topics": [
            "0x238399d427b947898edb290f5ff0f9109849b1c3ba196a42e35f00c50a54b98b"
          ],
          "data": "0x0000000000000000000000000000000000000000000000000000000000009d27000000000000000000000000cf06f7bc9d3cd7b068f059ab4c19f237f3a40f8c",
          "blockHash": "0x054d48080018de45f189550495cacccfb3adba5db01814270474a1761157dbc9",
          "blockNumber": "0x66bf59",
          "transactionHash": "0x1f1faea9434197f413f55f62a50093943f95f3bd447dd4104b572903088e1f72",
          "transactionIndex": "0x48",
          "logIndex": "0x85",
          "removed": false
        }
      ],
      "logsBloom": "0x00000000000000000000000000000000000000000000000000000000000000000000000000000000000000000000000000000000000000000900000000000000000000000000000000000000000000000000000000000000000000000000000000000000000000000000000000000000000000000000000000000000000000000000000000000000800000000000000000000000000000000000000000000010000000000000000000000000000000000000000000000000000002000000000000000000000000000000000000000000000000000000000000040000000000000000000000000000000000000000000000000000000000000000000000000000",
      "type": "0x2",
      "transactionHash": "0x1f1faea9434197f413f55f62a50093943f95f3bd447dd4104b572903088e1f72",
      "transactionIndex": "0x48",
      "blockHash": "0x054d48080018de45f189550495cacccfb3adba5db01814270474a1761157dbc9",
      "blockNumber": "0x66bf59",
      "gasUsed": "0x6c5f",
      "effectiveGasPrice": "0x6b0862705",
      "from": "0x8888111f8d7b999009a88224ce5acfc8fa500ddc",
      "to": "0x11545fe290a922c557274d4b53ef3880175d40d8",
      "contractAddress": null
    }
  ],
  "libraries": [],
  "pending": [],
  "returns": {},
  "timestamp": 1726928753,
  "chain": 11155111,
  "commit": "257d58a"
}