{
  "transactions": [
    {
      "hash": "0xc833aa90c22b1fcd05eaaf4a81237b9e92b2598d14e08835f8aeeeaaa1e16212",
      "transactionType": "CALL",
      "contractName": null,
      "contractAddress": "0x13b50021965171557cb0d6f3a2aaf1f86fcdea94",
      "function": "setPeer(uint32,bytes32)",
      "arguments": [
        "40245",
        "0x00000000000000000000000083473d55a8b4415b980d51ec9753c8fb19d26f82"
      ],
      "transaction": {
        "from": "0x8888111f8d7b999009a88224ce5acfc8fa500ddc",
        "to": "0x13b50021965171557cb0d6f3a2aaf1f86fcdea94",
        "gas": "0x95ae",
        "value": "0x0",
        "input": "0x3400288b0000000000000000000000000000000000000000000000000000000000009d3500000000000000000000000083473d55a8b4415b980d51ec9753c8fb19d26f82",
        "nonce": "0x3c",
        "chainId": "0xaa36a7"
      },
      "additionalContracts": [],
      "isFixedGasLimit": false
    },
    {
      "hash": "0x7001ddd0294e1b2768f92b3f0cca389897b4f53fddd123fb441861446b4df8e5",
      "transactionType": "CALL",
      "contractName": null,
      "contractAddress": "0x13b50021965171557cb0d6f3a2aaf1f86fcdea94",
      "function": "setPeer(uint32,bytes32)",
      "arguments": [
        "40231",
        "0x0000000000000000000000000b18692d2f4059f13baa765816bfbd07776f7d8b"
      ],
      "transaction": {
        "from": "0x8888111f8d7b999009a88224ce5acfc8fa500ddc",
        "to": "0x13b50021965171557cb0d6f3a2aaf1f86fcdea94",
        "gas": "0x1102d",
        "value": "0x0",
        "input": "0x3400288b0000000000000000000000000000000000000000000000000000000000009d270000000000000000000000000b18692d2f4059f13baa765816bfbd07776f7d8b",
        "nonce": "0x3d",
        "chainId": "0xaa36a7"
      },
      "additionalContracts": [],
      "isFixedGasLimit": false
    },
    {
      "hash": "0xd2ac3473fdbb30b1afa5c7c4c0abd2a52da002e074e4e509cd1f58eeb8cc045d",
      "transactionType": "CALL",
      "contractName": null,
      "contractAddress": "0x13b50021965171557cb0d6f3a2aaf1f86fcdea94",
      "function": "setPeer(uint32,bytes32)",
      "arguments": [
        "40267",
        "0x0000000000000000000000000b18692d2f4059f13baa765816bfbd07776f7d8b"
      ],
      "transaction": {
        "from": "0x8888111f8d7b999009a88224ce5acfc8fa500ddc",
        "to": "0x13b50021965171557cb0d6f3a2aaf1f86fcdea94",
        "gas": "0x1102d",
        "value": "0x0",
        "input": "0x3400288b0000000000000000000000000000000000000000000000000000000000009d4b0000000000000000000000000b18692d2f4059f13baa765816bfbd07776f7d8b",
        "nonce": "0x3e",
        "chainId": "0xaa36a7"
      },
      "additionalContracts": [],
      "isFixedGasLimit": false
    },
    {
      "hash": "0x1a78edb5af90afe3de99c23cdbf9c8e50ddbcee4c5037140b34b5b6937e241aa",
      "transactionType": "CALL",
      "contractName": null,
      "contractAddress": "0x13b50021965171557cb0d6f3a2aaf1f86fcdea94",
      "function": "setPeer(uint32,bytes32)",
      "arguments": [
        "40232",
        "0x0000000000000000000000000b18692d2f4059f13baa765816bfbd07776f7d8b"
      ],
      "transaction": {
        "from": "0x8888111f8d7b999009a88224ce5acfc8fa500ddc",
        "to": "0x13b50021965171557cb0d6f3a2aaf1f86fcdea94",
        "gas": "0x1102d",
        "value": "0x0",
        "input": "0x3400288b0000000000000000000000000000000000000000000000000000000000009d280000000000000000000000000b18692d2f4059f13baa765816bfbd07776f7d8b",
        "nonce": "0x3f",
        "chainId": "0xaa36a7"
      },
      "additionalContracts": [],
      "isFixedGasLimit": false
    },
    {
      "hash": "0xd1ef44a574d69cc9890e2fe663422da843896535ec240b44bd634c7a89394363",
      "transactionType": "CALL",
      "contractName": null,
      "contractAddress": "0x13b50021965171557cb0d6f3a2aaf1f86fcdea94",
      "function": "setPeer(uint32,bytes32)",
      "arguments": [
        "40322",
        "0x0000000000000000000000000b18692d2f4059f13baa765816bfbd07776f7d8b"
      ],
      "transaction": {
        "from": "0x8888111f8d7b999009a88224ce5acfc8fa500ddc",
        "to": "0x13b50021965171557cb0d6f3a2aaf1f86fcdea94",
        "gas": "0x1102d",
        "value": "0x0",
        "input": "0x3400288b0000000000000000000000000000000000000000000000000000000000009d820000000000000000000000000b18692d2f4059f13baa765816bfbd07776f7d8b",
        "nonce": "0x40",
        "chainId": "0xaa36a7"
      },
      "additionalContracts": [],
      "isFixedGasLimit": false
    }
  ],
  "receipts": [
    {
      "status": "0x1",
      "cumulativeGasUsed": "0x1060b12",
      "logs": [
        {
          "address": "0x13b50021965171557cb0d6f3a2aaf1f86fcdea94",
          "topics": [
            "0x238399d427b947898edb290f5ff0f9109849b1c3ba196a42e35f00c50a54b98b"
          ],
          "data": "0x0000000000000000000000000000000000000000000000000000000000009d3500000000000000000000000083473d55a8b4415b980d51ec9753c8fb19d26f82",
          "blockHash": "0x18db88607942e5e9f01b601e1b63b170eb7262f49c888b220c50a15c602cfd28",
          "blockNumber": "0x66c060",
          "transactionHash": "0xc833aa90c22b1fcd05eaaf4a81237b9e92b2598d14e08835f8aeeeaaa1e16212",
          "transactionIndex": "0x7a",
          "logIndex": "0x13e",
          "removed": false
        }
      ],
      "logsBloom": "0x00000000000000000000000000000000000000000000000000000000000000000000000000000000000000000000000000000080000000000800000000000000000000000000000000000000000000000000000000000000000000000000000000000000000000000000000000000000000000000000000000000000000000000000000000000000001000000000000000000000000000000000000000000000000000000000000000000000000000000000000000000000000002000000000000000000002000000000000000000000000000000000000000040000000000000000000000000000000000000000000000000000000000000000000000000000",
      "type": "0x2",
      "transactionHash": "0xc833aa90c22b1fcd05eaaf4a81237b9e92b2598d14e08835f8aeeeaaa1e16212",
      "transactionIndex": "0x7a",
      "blockHash": "0x18db88607942e5e9f01b601e1b63b170eb7262f49c888b220c50a15c602cfd28",
      "blockNumber": "0x66c060",
      "gasUsed": "0x6c5f",
      "effectiveGasPrice": "0x711eaa2d6",
      "from": "0x8888111f8d7b999009a88224ce5acfc8fa500ddc",
      "to": "0x13b50021965171557cb0d6f3a2aaf1f86fcdea94",
      "contractAddress": null
    },
    {
      "status": "0x1",
      "cumulativeGasUsed": "0x106c52d",
      "logs": [
        {
          "address": "0x13b50021965171557cb0d6f3a2aaf1f86fcdea94",
          "topics": [
            "0x238399d427b947898edb290f5ff0f9109849b1c3ba196a42e35f00c50a54b98b"
          ],
          "data": "0x0000000000000000000000000000000000000000000000000000000000009d270000000000000000000000000b18692d2f4059f13baa765816bfbd07776f7d8b",
          "blockHash": "0x18db88607942e5e9f01b601e1b63b170eb7262f49c888b220c50a15c602cfd28",
          "blockNumber": "0x66c060",
          "transactionHash": "0x7001ddd0294e1b2768f92b3f0cca389897b4f53fddd123fb441861446b4df8e5",
          "transactionIndex": "0x7b",
          "logIndex": "0x13f",
          "removed": false
        }
      ],
      "logsBloom": "0x00000000000000000000000000000000000000000000000000000000000000000000000000000000000000000000000000000080000000000800000000000000000000000000000000000000000000000000000000000000000000000000000000000000000000000000000000000000000000000000000000000000000000000000000000000000001000000000000000000000000000000000000000000000000000000000000000000000000000000000000000000000000002000000000000000000002000000000000000000000000000000000000000040000000000000000000000000000000000000000000000000000000000000000000000000000",
      "type": "0x2",
      "transactionHash": "0x7001ddd0294e1b2768f92b3f0cca389897b4f53fddd123fb441861446b4df8e5",
      "transactionIndex": "0x7b",
      "blockHash": "0x18db88607942e5e9f01b601e1b63b170eb7262f49c888b220c50a15c602cfd28",
      "blockNumber": "0x66c060",
      "gasUsed": "0xba1b",
      "effectiveGasPrice": "0x711eaa2d6",
      "from": "0x8888111f8d7b999009a88224ce5acfc8fa500ddc",
      "to": "0x13b50021965171557cb0d6f3a2aaf1f86fcdea94",
      "contractAddress": null
    },
    {
      "status": "0x1",
      "cumulativeGasUsed": "0x1077f48",
      "logs": [
        {
          "address": "0x13b50021965171557cb0d6f3a2aaf1f86fcdea94",
          "topics": [
            "0x238399d427b947898edb290f5ff0f9109849b1c3ba196a42e35f00c50a54b98b"
          ],
          "data": "0x0000000000000000000000000000000000000000000000000000000000009d4b0000000000000000000000000b18692d2f4059f13baa765816bfbd07776f7d8b",
          "blockHash": "0x18db88607942e5e9f01b601e1b63b170eb7262f49c888b220c50a15c602cfd28",
          "blockNumber": "0x66c060",
          "transactionHash": "0xd2ac3473fdbb30b1afa5c7c4c0abd2a52da002e074e4e509cd1f58eeb8cc045d",
          "transactionIndex": "0x7c",
          "logIndex": "0x140",
          "removed": false
        }
      ],
      "logsBloom": "0x00000000000000000000000000000000000000000000000000000000000000000000000000000000000000000000000000000080000000000800000000000000000000000000000000000000000000000000000000000000000000000000000000000000000000000000000000000000000000000000000000000000000000000000000000000000001000000000000000000000000000000000000000000000000000000000000000000000000000000000000000000000000002000000000000000000002000000000000000000000000000000000000000040000000000000000000000000000000000000000000000000000000000000000000000000000",
      "type": "0x2",
      "transactionHash": "0xd2ac3473fdbb30b1afa5c7c4c0abd2a52da002e074e4e509cd1f58eeb8cc045d",
      "transactionIndex": "0x7c",
      "blockHash": "0x18db88607942e5e9f01b601e1b63b170eb7262f49c888b220c50a15c602cfd28",
      "blockNumber": "0x66c060",
      "gasUsed": "0xba1b",
      "effectiveGasPrice": "0x711eaa2d6",
      "from": "0x8888111f8d7b999009a88224ce5acfc8fa500ddc",
      "to": "0x13b50021965171557cb0d6f3a2aaf1f86fcdea94",
      "contractAddress": null
    },
    {
      "status": "0x1",
      "cumulativeGasUsed": "0x1083963",
      "logs": [
        {
          "address": "0x13b50021965171557cb0d6f3a2aaf1f86fcdea94",
          "topics": [
            "0x238399d427b947898edb290f5ff0f9109849b1c3ba196a42e35f00c50a54b98b"
          ],
          "data": "0x0000000000000000000000000000000000000000000000000000000000009d280000000000000000000000000b18692d2f4059f13baa765816bfbd07776f7d8b",
          "blockHash": "0x18db88607942e5e9f01b601e1b63b170eb7262f49c888b220c50a15c602cfd28",
          "blockNumber": "0x66c060",
          "transactionHash": "0x1a78edb5af90afe3de99c23cdbf9c8e50ddbcee4c5037140b34b5b6937e241aa",
          "transactionIndex": "0x7d",
          "logIndex": "0x141",
          "removed": false
        }
      ],
      "logsBloom": "0x00000000000000000000000000000000000000000000000000000000000000000000000000000000000000000000000000000080000000000800000000000000000000000000000000000000000000000000000000000000000000000000000000000000000000000000000000000000000000000000000000000000000000000000000000000000001000000000000000000000000000000000000000000000000000000000000000000000000000000000000000000000000002000000000000000000002000000000000000000000000000000000000000040000000000000000000000000000000000000000000000000000000000000000000000000000",
      "type": "0x2",
      "transactionHash": "0x1a78edb5af90afe3de99c23cdbf9c8e50ddbcee4c5037140b34b5b6937e241aa",
      "transactionIndex": "0x7d",
      "blockHash": "0x18db88607942e5e9f01b601e1b63b170eb7262f49c888b220c50a15c602cfd28",
      "blockNumber": "0x66c060",
      "gasUsed": "0xba1b",
      "effectiveGasPrice": "0x711eaa2d6",
      "from": "0x8888111f8d7b999009a88224ce5acfc8fa500ddc",
      "to": "0x13b50021965171557cb0d6f3a2aaf1f86fcdea94",
      "contractAddress": null
    },
    {
      "status": "0x1",
      "cumulativeGasUsed": "0x108f37e",
      "logs": [
        {
          "address": "0x13b50021965171557cb0d6f3a2aaf1f86fcdea94",
          "topics": [
            "0x238399d427b947898edb290f5ff0f9109849b1c3ba196a42e35f00c50a54b98b"
          ],
          "data": "0x0000000000000000000000000000000000000000000000000000000000009d820000000000000000000000000b18692d2f4059f13baa765816bfbd07776f7d8b",
          "blockHash": "0x18db88607942e5e9f01b601e1b63b170eb7262f49c888b220c50a15c602cfd28",
          "blockNumber": "0x66c060",
          "transactionHash": "0xd1ef44a574d69cc9890e2fe663422da843896535ec240b44bd634c7a89394363",
          "transactionIndex": "0x7e",
          "logIndex": "0x142",
          "removed": false
        }
      ],
      "logsBloom": "0x00000000000000000000000000000000000000000000000000000000000000000000000000000000000000000000000000000080000000000800000000000000000000000000000000000000000000000000000000000000000000000000000000000000000000000000000000000000000000000000000000000000000000000000000000000000001000000000000000000000000000000000000000000000000000000000000000000000000000000000000000000000000002000000000000000000002000000000000000000000000000000000000000040000000000000000000000000000000000000000000000000000000000000000000000000000",
      "type": "0x2",
      "transactionHash": "0xd1ef44a574d69cc9890e2fe663422da843896535ec240b44bd634c7a89394363",
      "transactionIndex": "0x7e",
      "blockHash": "0x18db88607942e5e9f01b601e1b63b170eb7262f49c888b220c50a15c602cfd28",
      "blockNumber": "0x66c060",
      "gasUsed": "0xba1b",
      "effectiveGasPrice": "0x711eaa2d6",
      "from": "0x8888111f8d7b999009a88224ce5acfc8fa500ddc",
      "to": "0x13b50021965171557cb0d6f3a2aaf1f86fcdea94",
      "contractAddress": null
    }
  ],
  "libraries": [],
  "pending": [],
  "returns": {},
  "timestamp": 1726932470,
  "chain": 11155111,
  "commit": "257d58a"
}