{
  "transactions": [
    {
      "hash": "0x08a27606d0854622a189019950d0bb45c47e8280a04b8fd464a1007052412041",
      "transactionType": "CALL",
      "contractName": null,
      "contractAddress": "0x11545fe290a922c557274d4b53ef3880175d40d8",
      "function": "setPeer(uint32,bytes32)",
      "arguments": [
        "40267",
        "0x000000000000000000000000cf06f7bc9d3cd7b068f059ab4c19f237f3a40f8c"
      ],
      "transaction": {
        "from": "0x8888111f8d7b999009a88224ce5acfc8fa500ddc",
        "to": "0x11545fe290a922c557274d4b53ef3880175d40d8",
        "gas": "0x95ae",
        "value": "0x0",
        "input": "0x3400288b0000000000000000000000000000000000000000000000000000000000009d4b000000000000000000000000cf06f7bc9d3cd7b068f059ab4c19f237f3a40f8c",
        "nonce": "0x27",
        "chainId": "0xaa36a7"
      },
      "additionalContracts": [],
      "isFixedGasLimit": false
    }
  ],
  "receipts": [
    {
      "status": "0x1",
      "cumulativeGasUsed": "0x90a9f1",
      "logs": [
        {
          "address": "0x11545fe290a922c557274d4b53ef3880175d40d8",
          "topics": [
            "0x238399d427b947898edb290f5ff0f9109849b1c3ba196a42e35f00c50a54b98b"
          ],
          "data": "0x0000000000000000000000000000000000000000000000000000000000009d4b000000000000000000000000cf06f7bc9d3cd7b068f059ab4c19f237f3a40f8c",
          "blockHash": "0x167da84b12624757bab56b7d151cc301085523add12cc18b1c337b5c5f625195",
          "blockNumber": "0x66bece",
          "transactionHash": "0x08a27606d0854622a189019950d0bb45c47e8280a04b8fd464a1007052412041",
          "transactionIndex": "0x22",
          "logIndex": "0x62",
          "removed": false
        }
      ],
      "logsBloom": "0x00000000000000000000000000000000000000000000000000000000000000000000000000000000000000000000000000000000000000000900000000000000000000000000000000000000000000000000000000000000000000000000000000000000000000000000000000000000000000000000000000000000000000000000000000000000800000000000000000000000000000000000000000000010000000000000000000000000000000000000000000000000000002000000000000000000000000000000000000000000000000000000000000040000000000000000000000000000000000000000000000000000000000000000000000000000",
      "type": "0x2",
      "transactionHash": "0x08a27606d0854622a189019950d0bb45c47e8280a04b8fd464a1007052412041",
      "transactionIndex": "0x22",
      "blockHash": "0x167da84b12624757bab56b7d151cc301085523add12cc18b1c337b5c5f625195",
      "blockNumber": "0x66bece",
      "gasUsed": "0x6c5f",
      "effectiveGasPrice": "0x58a010082",
      "from": "0x8888111f8d7b999009a88224ce5acfc8fa500ddc",
      "to": "0x11545fe290a922c557274d4b53ef3880175d40d8",
      "contractAddress": null
    }
  ],
  "libraries": [],
  "pending": [],
  "returns": {},
  "timestamp": 1726926829,
  "chain": 11155111,
  "commit": "57dd6ef"
}