{
  "transactions": [
    {
      "hash": "0xfd9a90cb8b45fc10116994fda5f5028ed2458a025b4c1149fdd29a54bb362456",
      "transactionType": "CALL",
      "contractName": null,
      "contractAddress": "0x11545fe290a922c557274d4b53ef3880175d40d8",
      "function": "setPeer(uint32,bytes32)",
      "arguments": [
        "40231",
        "0x000000000000000000000000cf06f7bc9d3cd7b068f059ab4c19f237f3a40f8c"
      ],
      "transaction": {
        "from": "0x8888111f8d7b999009a88224ce5acfc8fa500ddc",
        "to": "0x11545fe290a922c557274d4b53ef3880175d40d8",
        "gas": "0x95ae",
        "value": "0x0",
        "input": "0x3400288b0000000000000000000000000000000000000000000000000000000000009d27000000000000000000000000cf06f7bc9d3cd7b068f059ab4c19f237f3a40f8c",
        "nonce": "0x26",
        "chainId": "0xaa36a7"
      },
      "additionalContracts": [],
      "isFixedGasLimit": false
    }
  ],
  "receipts": [
    {
      "status": "0x1",
      "cumulativeGasUsed": "0xb7be8e",
      "logs": [
        {
          "address": "0x11545fe290a922c557274d4b53ef3880175d40d8",
          "topics": [
            "0x238399d427b947898edb290f5ff0f9109849b1c3ba196a42e35f00c50a54b98b"
          ],
          "data": "0x0000000000000000000000000000000000000000000000000000000000009d27000000000000000000000000cf06f7bc9d3cd7b068f059ab4c19f237f3a40f8c",
          "blockHash": "0x296e21a854c99a9c47ff544af73ab606c0f9c8bd0b45614becdd379da5e24175",
          "blockNumber": "0x66becb",
          "transactionHash": "0xfd9a90cb8b45fc10116994fda5f5028ed2458a025b4c1149fdd29a54bb362456",
          "transactionIndex": "0x52",
          "logIndex": "0x64",
          "removed": false
        }
      ],
      "logsBloom": "0x00000000000000000000000000000000000000000000000000000000000000000000000000000000000000000000000000000000000000000900000000000000000000000000000000000000000000000000000000000000000000000000000000000000000000000000000000000000000000000000000000000000000000000000000000000000800000000000000000000000000000000000000000000010000000000000000000000000000000000000000000000000000002000000000000000000000000000000000000000000000000000000000000040000000000000000000000000000000000000000000000000000000000000000000000000000",
      "type": "0x2",
      "transactionHash": "0xfd9a90cb8b45fc10116994fda5f5028ed2458a025b4c1149fdd29a54bb362456",
      "transactionIndex": "0x52",
      "blockHash": "0x296e21a854c99a9c47ff544af73ab606c0f9c8bd0b45614becdd379da5e24175",
      "blockNumber": "0x66becb",
      "gasUsed": "0x6c5f",
      "effectiveGasPrice": "0x5962b7f42",
      "from": "0x8888111f8d7b999009a88224ce5acfc8fa500ddc",
      "to": "0x11545fe290a922c557274d4b53ef3880175d40d8",
      "contractAddress": null
    }
  ],
  "libraries": [],
  "pending": [],
  "returns": {},
  "timestamp": 1726926798,
  "chain": 11155111,
  "commit": "57dd6ef"
}