{
  "transactions": [
    {
      "hash": "0x16ecdcfb8956e7a6567a540d7960c825856f92f5afdbf4baf7621fd1b450b805",
      "transactionType": "CALL",
      "contractName": null,
      "contractAddress": "0xcf06f7bc9d3cd7b068f059ab4c19f237f3a40f8c",
      "function": "setPeer(uint32,bytes32)",
      "arguments": [
        "40161",
        "0x00000000000000000000000011545fe290a922c557274d4b53ef3880175d40d8"
      ],
      "transaction": {
        "from": "0x8888111f8d7b999009a88224ce5acfc8fa500ddc",
        "to": "0xcf06f7bc9d3cd7b068f059ab4c19f237f3a40f8c",
        "gas": "0x1102d",
        "value": "0x0",
        "input": "0x3400288b0000000000000000000000000000000000000000000000000000000000009ce100000000000000000000000011545fe290a922c557274d4b53ef3880175d40d8",
        "nonce": "0x1",
        "chainId": "0x13882"
      },
      "additionalContracts": [],
      "isFixedGasLimit": false
    }
  ],
  "receipts": [
    {
      "status": "0x1",
      "cumulativeGasUsed": "0xba1b",
      "logs": [
        {
          "address": "0xcf06f7bc9d3cd7b068f059ab4c19f237f3a40f8c",
          "topics": [
            "0x238399d427b947898edb290f5ff0f9109849b1c3ba196a42e35f00c50a54b98b"
          ],
          "data": "0x0000000000000000000000000000000000000000000000000000000000009ce100000000000000000000000011545fe290a922c557274d4b53ef3880175d40d8",
          "blockHash": "0x2e9f82ada702d0d988030124ce94b1960018e6604ea19fe6f50ed13c033fa439",
          "blockNumber": "0xbade07",
          "transactionHash": "0x16ecdcfb8956e7a6567a540d7960c825856f92f5afdbf4baf7621fd1b450b805",
          "transactionIndex": "0x0",
          "logIndex": "0x0",
          "removed": false
        },
        {
          "address": "0x0000000000000000000000000000000000001010",
          "topics": [
            "0x4dfe1bbbcf077ddc3e01291eea2d5c70c2b422b415d95645b9adcfd678cb1d63",
            "0x0000000000000000000000000000000000000000000000000000000000001010",
            "0x0000000000000000000000008888111f8d7b999009a88224ce5acfc8fa500ddc",
            "0x0000000000000000000000004631753190f2f5a15a7ba172bbac102b7d95fa22"
          ],
          "data": "0x000000000000000000000000000000000000000000000000000513ee82bb2400000000000000000000000000000000000000000000000000024500cedf7e94dd0000000000000000000000000000000000000000000001cc4f7f9a2590199974000000000000000000000000000000000000000000000000023fece05cc370dd0000000000000000000000000000000000000000000001cc4f84ae1412d4bd74",
          "blockHash": "0x2e9f82ada702d0d988030124ce94b1960018e6604ea19fe6f50ed13c033fa439",
          "blockNumber": "0xbade07",
          "transactionHash": "0x16ecdcfb8956e7a6567a540d7960c825856f92f5afdbf4baf7621fd1b450b805",
          "transactionIndex": "0x0",
          "logIndex": "0x1",
          "removed": false
        }
      ],
      "logsBloom": "0x00000000000000000000000000000000000000002000000000000000000000000000000000000000000000000000000000008000200000000800000040000000000000000000000000000000000000800000000000000000000100000000000000000010001000100000000000000010000000000000000080000000000000000000000000000000000000000000000000000000000000000000000000000000200000000000000000000000000000000000000040000100000002000000004000000000000000000001000000000000000000000000000000140000000000000000000000000000000000000000000000000000000000000000000000100000",
      "type": "0x2",
      "transactionHash": "0x16ecdcfb8956e7a6567a540d7960c825856f92f5afdbf4baf7621fd1b450b805",
      "transactionIndex": "0x0",
      "blockHash": "0x2e9f82ada702d0d988030124ce94b1960018e6604ea19fe6f50ed13c033fa439",
      "blockNumber": "0xbade07",
      "gasUsed": "0xba1b",
      "effectiveGasPrice": "0x6fc23ac0f",
      "from": "0x8888111f8d7b999009a88224ce5acfc8fa500ddc",
      "to": "0xcf06f7bc9d3cd7b068f059ab4c19f237f3a40f8c",
      "contractAddress": null
    }
  ],
  "libraries": [],
  "pending": [],
  "returns": {},
  "timestamp": 1726931208,
  "chain": 80002,
  "commit": "257d58a"
}