{
  "transactions": [
    {
      "hash": "0xa0421317874c3a2af72873e5c95fcd37b9fc051aaea1d87b8c0282a250e66246",
      "transactionType": "CALL",
      "contractName": null,
      "contractAddress": "0xcf06f7bc9d3cd7b068f059ab4c19f237f3a40f8c",
      "function": "setPeer(uint32,bytes32)",
      "arguments": [
        "40161",
        "0x00000000000000000000000011545fe290a922c557274d4b53ef3880175d40d8"
      ],
      "transaction": {
        "from": "0x8888111f8d7b999009a88224ce5acfc8fa500ddc",
        "to": "0xcf06f7bc9d3cd7b068f059ab4c19f237f3a40f8c",
        "gas": "0x127f2",
        "value": "0x0",
        "input": "0x3400288b0000000000000000000000000000000000000000000000000000000000009ce100000000000000000000000011545fe290a922c557274d4b53ef3880175d40d8",
        "nonce": "0x1",
        "chainId": "0x66eee"
      },
      "additionalContracts": [],
      "isFixedGasLimit": false
    }
  ],
  "receipts": [
    {
      "status": "0x1",
      "cumulativeGasUsed": "0xd7e8",
      "logs": [
        {
          "address": "0xcf06f7bc9d3cd7b068f059ab4c19f237f3a40f8c",
          "topics": [
            "0x238399d427b947898edb290f5ff0f9109849b1c3ba196a42e35f00c50a54b98b"
          ],
          "data": "0x0000000000000000000000000000000000000000000000000000000000009ce100000000000000000000000011545fe290a922c557274d4b53ef3880175d40d8",
          "blockHash": "0x9fc6b306d27d0dba4f688e72ab0f6400d8c8451c2724c094215e5ecdd3d1ce7b",
          "blockNumber": "0x4efc47c",
          "transactionHash": "0xa0421317874c3a2af72873e5c95fcd37b9fc051aaea1d87b8c0282a250e66246",
          "transactionIndex": "0x1",
          "logIndex": "0x0",
          "removed": false
        }
      ],
      "logsBloom": "0x00000000000000000000000000000000000000000000000000000000000000000000000000000000000000000000000000000000200000000800000000000000000000000000000000000000000000000000000000000000000000000000000000000010001000000000000000000000000000000000000000000000000000000000000000000000000000000000000000000000000000000000000000000000000000000000000000000000000000000000000000000000000002000000000000000000000000000000000000000000000000000000000000040000000000000000000000000000000000000000000000000000000000000000000000000000",
      "type": "0x2",
      "transactionHash": "0xa0421317874c3a2af72873e5c95fcd37b9fc051aaea1d87b8c0282a250e66246",
      "transactionIndex": "0x1",
      "blockHash": "0x9fc6b306d27d0dba4f688e72ab0f6400d8c8451c2724c094215e5ecdd3d1ce7b",
      "blockNumber": "0x4efc47c",
      "gasUsed": "0xd7e8",
      "effectiveGasPrice": "0x5f5e100",
      "from": "0x8888111f8d7b999009a88224ce5acfc8fa500ddc",
      "to": "0xcf06f7bc9d3cd7b068f059ab4c19f237f3a40f8c",
      "contractAddress": null,
      "gasUsedForL1": "0x1dcd",
      "l1BlockNumber": "0x66c008"
    }
  ],
  "libraries": [],
  "pending": [],
  "returns": {},
  "timestamp": 1726931185,
  "chain": 421614,
  "commit": "257d58a"
}