{
  "deployments": [
    {
      "transactions": [
        {
          "hash": "0x29b3a9019edf64bf0ba757a4f15b0797480217b5e0e39d6e813e27ff00717817",
          "transactionType": "CALL",
          "contractName": null,
          "contractAddress": "0xcf06f7bc9d3cd7b068f059ab4c19f237f3a40f8c",
          "function": "setPeer(uint32,bytes32)",
          "arguments": [
            "40245",
            "0x000000000000000000000000cf06f7bc9d3cd7b068f059ab4c19f237f3a40f8c"
          ],
          "transaction": {
            "from": "0x8888111f8d7b999009a88224ce5acfc8fa500ddc",
            "to": "0xcf06f7bc9d3cd7b068f059ab4c19f237f3a40f8c",
            "gas": "0x95ae",
            "value": "0x0",
            "input": "0x3400288b0000000000000000000000000000000000000000000000000000000000009d35000000000000000000000000cf06f7bc9d3cd7b068f059ab4c19f237f3a40f8c",
            "nonce": "0x9",
            "chainId": "0xaa36a7"
          },
          "additionalContracts": [],
          "isFixedGasLimit": false
        }
      ],
      "receipts": [
        {
          "status": "0x1",
          "cumulativeGasUsed": "0xad37a5",
          "logs": [
            {
              "address": "0xcf06f7bc9d3cd7b068f059ab4c19f237f3a40f8c",
              "topics": [
                "0x238399d427b947898edb290f5ff0f9109849b1c3ba196a42e35f00c50a54b98b"
              ],
              "data": "0x0000000000000000000000000000000000000000000000000000000000009d35000000000000000000000000cf06f7bc9d3cd7b068f059ab4c19f237f3a40f8c",
              "blockHash": "0xf906014626f40e3ec4314b2139e5555c15d4358ebd951f03f0bfa90fc2a48dcf",
              "blockNumber": "0x66b588",
              "transactionHash": "0x29b3a9019edf64bf0ba757a4f15b0797480217b5e0e39d6e813e27ff00717817",
              "transactionIndex": "0x3f",
              "logIndex": "0x56",
              "removed": false
            }
          ],
          "logsBloom": "0x00000000000000000000000000000000000000000000000000000000000000000000000000000000000000000000000000000000200000000800000000000000000000000000000000000000000000000000000000000000000000000000000000000010001000000000000000000000000000000000000000000000000000000000000000000000000000000000000000000000000000000000000000000000000000000000000000000000000000000000000000000000000002000000000000000000000000000000000000000000000000000000000000040000000000000000000000000000000000000000000000000000000000000000000000000000",
          "type": "0x2",
          "transactionHash": "0x29b3a9019edf64bf0ba757a4f15b0797480217b5e0e39d6e813e27ff00717817",
          "transactionIndex": "0x3f",
          "blockHash": "0xf906014626f40e3ec4314b2139e5555c15d4358ebd951f03f0bfa90fc2a48dcf",
          "blockNumber": "0x66b588",
          "gasUsed": "0x6c5f",
          "effectiveGasPrice": "0x2511cbd76",
          "from": "0x8888111f8d7b999009a88224ce5acfc8fa500ddc",
          "to": "0xcf06f7bc9d3cd7b068f059ab4c19f237f3a40f8c",
          "contractAddress": null
        }
      ],
      "libraries": [],
      "pending": [],
      "returns": {},
      "timestamp": 1726892545,
      "chain": 11155111,
      "commit": "ebcef3f"
    },
    {
      "transactions": [
        {
          "hash": "0x3e999c9d8c37120d937343393727d7cb21577b5831090baac053a994b0696b66",
          "transactionType": "CALL",
          "contractName": null,
          "contractAddress": "0xcf06f7bc9d3cd7b068f059ab4c19f237f3a40f8c",
          "function": "setPeer(uint32,bytes32)",
          "arguments": [
            "40161",
            "0x000000000000000000000000cf06f7bc9d3cd7b068f059ab4c19f237f3a40f8c"
          ],
          "transaction": {
            "from": "0x8888111f8d7b999009a88224ce5acfc8fa500ddc",
            "to": "0xcf06f7bc9d3cd7b068f059ab4c19f237f3a40f8c",
            "gas": "0x95ae",
            "value": "0x0",
            "input": "0x3400288b0000000000000000000000000000000000000000000000000000000000009ce1000000000000000000000000cf06f7bc9d3cd7b068f059ab4c19f237f3a40f8c",
            "nonce": "0x2",
            "chainId": "0x14a34"
          },
          "additionalContracts": [],
          "isFixedGasLimit": false
        }
      ],
      "receipts": [
        {
          "status": "0x1",
          "cumulativeGasUsed": "0xefa13",
          "logs": [
            {
              "address": "0xcf06f7bc9d3cd7b068f059ab4c19f237f3a40f8c",
              "topics": [
                "0x238399d427b947898edb290f5ff0f9109849b1c3ba196a42e35f00c50a54b98b"
              ],
              "data": "0x0000000000000000000000000000000000000000000000000000000000009ce1000000000000000000000000cf06f7bc9d3cd7b068f059ab4c19f237f3a40f8c",
              "blockHash": "0xf0b98ee123bab4cf291a72e63ef45fa9fd5b9368ff80f9a2363a76faf33d1f79",
              "blockNumber": "0xed759a",
              "transactionHash": "0x3e999c9d8c37120d937343393727d7cb21577b5831090baac053a994b0696b66",
              "transactionIndex": "0x7",
              "logIndex": "0x1f",
              "removed": false
            }
          ],
          "logsBloom": "0x00000000000000000000000000000000000000000000000000000000000000000000000000000000000000000000000000000000200000000800000000000000000000000000000000000000000000000000000000000000000000000000000000000010001000000000000000000000000000000000000000000000000000000000000000000000000000000000000000000000000000000000000000000000000000000000000000000000000000000000000000000000000002000000000000000000000000000000000000000000000000000000000000040000000000000000000000000000000000000000000000000000000000000000000000000000",
          "type": "0x2",
          "transactionHash": "0x3e999c9d8c37120d937343393727d7cb21577b5831090baac053a994b0696b66",
          "transactionIndex": "0x7",
          "blockHash": "0xf0b98ee123bab4cf291a72e63ef45fa9fd5b9368ff80f9a2363a76faf33d1f79",
          "blockNumber": "0xed759a",
          "gasUsed": "0x6c5f",
          "effectiveGasPrice": "0xf4347",
          "from": "0x8888111f8d7b999009a88224ce5acfc8fa500ddc",
          "to": "0xcf06f7bc9d3cd7b068f059ab4c19f237f3a40f8c",
          "contractAddress": null,
          "l1BaseFeeScalar": "0x44d",
          "l1BlobBaseFee": "0xd38",
          "l1BlobBaseFeeScalar": "0xa118b",
          "l1Fee": "0x4e09c5fe8",
          "l1GasPrice": "0x2c4c93b72",
          "l1GasUsed": "0x640"
        }
      ],
      "libraries": [],
      "pending": [],
      "returns": {},
      "timestamp": 1726892546,
      "chain": 84532,
      "commit": "ebcef3f"
    }
  ],
  "timestamp": 1726892571
}