{
  "transactions": [
    {
      "hash": "0xc132e9c958b45b7412f32404ed54f9ba3d70cc0e265d03a47c090062ac703ab9",
      "transactionType": "CALL",
      "contractName": null,
      "contractAddress": "0x83473d55a8b4415b980d51ec9753c8fb19d26f82",
      "function": "setPeer(uint32,bytes32)",
      "arguments": [
        "40161",
        "0x00000000000000000000000013b50021965171557cb0d6f3a2aaf1f86fcdea94"
      ],
      "transaction": {
        "from": "0x8888111f8d7b999009a88224ce5acfc8fa500ddc",
        "to": "0x83473d55a8b4415b980d51ec9753c8fb19d26f82",
        "gas": "0x100fd",
        "value": "0x0",
        "input": "0x3400288b0000000000000000000000000000000000000000000000000000000000009ce100000000000000000000000013b50021965171557cb0d6f3a2aaf1f86fcdea94",
        "nonce": "0x8",
        "chainId": "0x14a34"
      },
      "additionalContracts": [],
      "isFixedGasLimit": false
    },
    {
      "hash": "0xeff6a3e51c1f3c0a6e03a5f0b1c417292621bbf4992324effc01545605225a4a",
      "transactionType": "CALL",
      "contractName": null,
      "contractAddress": "0x83473d55a8b4415b980d51ec9753c8fb19d26f82",
      "function": "setPeer(uint32,bytes32)",
      "arguments": [
        "40231",
        "0x0000000000000000000000000b18692d2f4059f13baa765816bfbd07776f7d8b"
      ],
      "transaction": {
        "from": "0x8888111f8d7b999009a88224ce5acfc8fa500ddc",
        "to": "0x83473d55a8b4415b980d51ec9753c8fb19d26f82",
        "gas": "0x1102d",
        "value": "0x0",
        "input": "0x3400288b0000000000000000000000000000000000000000000000000000000000009d270000000000000000000000000b18692d2f4059f13baa765816bfbd07776f7d8b",
        "nonce": "0x9",
        "chainId": "0x14a34"
      },
      "additionalContracts": [],
      "isFixedGasLimit": false
    },
    {
      "hash": "0x545797fbd7adff3f46db936499c285c288b2726841f5a3e612d2b66325172a0a",
      "transactionType": "CALL",
      "contractName": null,
      "contractAddress": "0x83473d55a8b4415b980d51ec9753c8fb19d26f82",
      "function": "setPeer(uint32,bytes32)",
      "arguments": [
        "40267",
        "0x0000000000000000000000000b18692d2f4059f13baa765816bfbd07776f7d8b"
      ],
      "transaction": {
        "from": "0x8888111f8d7b999009a88224ce5acfc8fa500ddc",
        "to": "0x83473d55a8b4415b980d51ec9753c8fb19d26f82",
        "gas": "0x1102d",
        "value": "0x0",
        "input": "0x3400288b0000000000000000000000000000000000000000000000000000000000009d4b0000000000000000000000000b18692d2f4059f13baa765816bfbd07776f7d8b",
        "nonce": "0xa",
        "chainId": "0x14a34"
      },
      "additionalContracts": [],
      "isFixedGasLimit": false
    },
    {
      "hash": "0x5ad51f4b57a440bf776ba441aedd0995423fdd1e57df222e0c2d71de676f10b1",
      "transactionType": "CALL",
      "contractName": null,
      "contractAddress": "0x83473d55a8b4415b980d51ec9753c8fb19d26f82",
      "function": "setPeer(uint32,bytes32)",
      "arguments": [
        "40232",
        "0x0000000000000000000000000b18692d2f4059f13baa765816bfbd07776f7d8b"
      ],
      "transaction": {
        "from": "0x8888111f8d7b999009a88224ce5acfc8fa500ddc",
        "to": "0x83473d55a8b4415b980d51ec9753c8fb19d26f82",
        "gas": "0x1102d",
        "value": "0x0",
        "input": "0x3400288b0000000000000000000000000000000000000000000000000000000000009d280000000000000000000000000b18692d2f4059f13baa765816bfbd07776f7d8b",
        "nonce": "0xb",
        "chainId": "0x14a34"
      },
      "additionalContracts": [],
      "isFixedGasLimit": false
    },
    {
      "hash": "0xd9442715b0e9430f4a4238939d30042140081e3a6fea4871bf6eb8eddc83a673",
      "transactionType": "CALL",
      "contractName": null,
      "contractAddress": "0x83473d55a8b4415b980d51ec9753c8fb19d26f82",
      "function": "setPeer(uint32,bytes32)",
      "arguments": [
        "40322",
        "0x0000000000000000000000000b18692d2f4059f13baa765816bfbd07776f7d8b"
      ],
      "transaction": {
        "from": "0x8888111f8d7b999009a88224ce5acfc8fa500ddc",
        "to": "0x83473d55a8b4415b980d51ec9753c8fb19d26f82",
        "gas": "0x1102d",
        "value": "0x0",
        "input": "0x3400288b0000000000000000000000000000000000000000000000000000000000009d820000000000000000000000000b18692d2f4059f13baa765816bfbd07776f7d8b",
        "nonce": "0xc",
        "chainId": "0x14a34"
      },
      "additionalContracts": [],
      "isFixedGasLimit": false
    }
  ],
  "receipts": [
    {
      "status": "0x1",
      "cumulativeGasUsed": "0x1f97a0",
      "logs": [
        {
          "address": "0x83473d55a8b4415b980d51ec9753c8fb19d26f82",
          "topics": [
            "0x238399d427b947898edb290f5ff0f9109849b1c3ba196a42e35f00c50a54b98b"
          ],
          "data": "0x0000000000000000000000000000000000000000000000000000000000009ce100000000000000000000000013b50021965171557cb0d6f3a2aaf1f86fcdea94",
          "blockHash": "0xcc2d8c5cf7e926db2b397336932a94680e48d31d910acf1fc1ff8d090c86583f",
          "blockNumber": "0xedc39d",
          "transactionHash": "0xc132e9c958b45b7412f32404ed54f9ba3d70cc0e265d03a47c090062ac703ab9",
          "transactionIndex": "0xf",
          "logIndex": "0x5",
          "removed": false
        }
      ],
      "logsBloom": "0x00000000000000000000000000000000000000000000000000000000000000000000000000000000000000000000000000000000000000000800000000000080000000000000000000000000000000000000000000000000000000000000000000000000000000000000000000000000000000000000000100000000000000000000000000000000000000000200000000000000000000000000000000000000000000000000000000000000000000000000000000000000000002000000000000000000000000000000000000000000000000000000000000040000000000000000000000000000000000000000000000000000000000000000000000000000",
      "type": "0x2",
      "transactionHash": "0xc132e9c958b45b7412f32404ed54f9ba3d70cc0e265d03a47c090062ac703ab9",
      "transactionIndex": "0xf",
      "blockHash": "0xcc2d8c5cf7e926db2b397336932a94680e48d31d910acf1fc1ff8d090c86583f",
      "blockNumber": "0xedc39d",
      "gasUsed": "0xba0f",
      "effectiveGasPrice": "0xc539",
      "from": "0x8888111f8d7b999009a88224ce5acfc8fa500ddc",
      "to": "0x83473d55a8b4415b980d51ec9753c8fb19d26f82",
      "contractAddress": null,
      "l1BaseFeeScalar": "0x44d",
      "l1BlobBaseFee": "0x1",
      "l1BlobBaseFeeScalar": "0xa118b",
      "l1Fee": "0x7757d465f",
      "l1GasPrice": "0x43bf3a3f7",
      "l1GasUsed": "0x640"
    },
    {
      "status": "0x1",
      "cumulativeGasUsed": "0xb60b0",
      "logs": [
        {
          "address": "0x83473d55a8b4415b980d51ec9753c8fb19d26f82",
          "topics": [
            "0x238399d427b947898edb290f5ff0f9109849b1c3ba196a42e35f00c50a54b98b"
          ],
          "data": "0x0000000000000000000000000000000000000000000000000000000000009d270000000000000000000000000b18692d2f4059f13baa765816bfbd07776f7d8b",
          "blockHash": "0x1136ca486d75922ec4fab10b4c904be560629735413c5d4193e1530aadd46f01",
          "blockNumber": "0xedc39e",
          "transactionHash": "0xeff6a3e51c1f3c0a6e03a5f0b1c417292621bbf4992324effc01545605225a4a",
          "transactionIndex": "0x6",
          "logIndex": "0x10",
          "removed": false
        }
      ],
      "logsBloom": "0x00000000000000000000000000000000000000000000000000000000000000000000000000000000000000000000000000000000000000000800000000000080000000000000000000000000000000000000000000000000000000000000000000000000000000000000000000000000000000000000000100000000000000000000000000000000000000000200000000000000000000000000000000000000000000000000000000000000000000000000000000000000000002000000000000000000000000000000000000000000000000000000000000040000000000000000000000000000000000000000000000000000000000000000000000000000",
      "type": "0x2",
      "transactionHash": "0xeff6a3e51c1f3c0a6e03a5f0b1c417292621bbf4992324effc01545605225a4a",
      "transactionIndex": "0x6",
      "blockHash": "0x1136ca486d75922ec4fab10b4c904be560629735413c5d4193e1530aadd46f01",
      "blockNumber": "0xedc39e",
      "gasUsed": "0xba1b",
      "effectiveGasPrice": "0xc539",
      "from": "0x8888111f8d7b999009a88224ce5acfc8fa500ddc",
      "to": "0x83473d55a8b4415b980d51ec9753c8fb19d26f82",
      "contractAddress": null,
      "l1BaseFeeScalar": "0x44d",
      "l1BlobBaseFee": "0x1",
      "l1BlobBaseFeeScalar": "0xa118b",
      "l1Fee": "0x7757d465f",
      "l1GasPrice": "0x43bf3a3f7",
      "l1GasUsed": "0x640"
    },
    {
      "status": "0x1",
      "cumulativeGasUsed": "0xc1acb",
      "logs": [
        {
          "address": "0x83473d55a8b4415b980d51ec9753c8fb19d26f82",
          "topics": [
            "0x238399d427b947898edb290f5ff0f9109849b1c3ba196a42e35f00c50a54b98b"
          ],
          "data": "0x0000000000000000000000000000000000000000000000000000000000009d4b0000000000000000000000000b18692d2f4059f13baa765816bfbd07776f7d8b",
          "blockHash": "0x1136ca486d75922ec4fab10b4c904be560629735413c5d4193e1530aadd46f01",
          "blockNumber": "0xedc39e",
          "transactionHash": "0x545797fbd7adff3f46db936499c285c288b2726841f5a3e612d2b66325172a0a",
          "transactionIndex": "0x7",
          "logIndex": "0x11",
          "removed": false
        }
      ],
      "logsBloom": "0x00000000000000000000000000000000000000000000000000000000000000000000000000000000000000000000000000000000000000000800000000000080000000000000000000000000000000000000000000000000000000000000000000000000000000000000000000000000000000000000000100000000000000000000000000000000000000000200000000000000000000000000000000000000000000000000000000000000000000000000000000000000000002000000000000000000000000000000000000000000000000000000000000040000000000000000000000000000000000000000000000000000000000000000000000000000",
      "type": "0x2",
      "transactionHash": "0x545797fbd7adff3f46db936499c285c288b2726841f5a3e612d2b66325172a0a",
      "transactionIndex": "0x7",
      "blockHash": "0x1136ca486d75922ec4fab10b4c904be560629735413c5d4193e1530aadd46f01",
      "blockNumber": "0xedc39e",
      "gasUsed": "0xba1b",
      "effectiveGasPrice": "0xc539",
      "from": "0x8888111f8d7b999009a88224ce5acfc8fa500ddc",
      "to": "0x83473d55a8b4415b980d51ec9753c8fb19d26f82",
      "contractAddress": null,
      "l1BaseFeeScalar": "0x44d",
      "l1BlobBaseFee": "0x1",
      "l1BlobBaseFeeScalar": "0xa118b",
      "l1Fee": "0x7757d465f",
      "l1GasPrice": "0x43bf3a3f7",
      "l1GasUsed": "0x640"
    },
    {
      "status": "0x1",
      "cumulativeGasUsed": "0xcd4e6",
      "logs": [
        {
          "address": "0x83473d55a8b4415b980d51ec9753c8fb19d26f82",
          "topics": [
            "0x238399d427b947898edb290f5ff0f9109849b1c3ba196a42e35f00c50a54b98b"
          ],
          "data": "0x0000000000000000000000000000000000000000000000000000000000009d280000000000000000000000000b18692d2f4059f13baa765816bfbd07776f7d8b",
          "blockHash": "0x1136ca486d75922ec4fab10b4c904be560629735413c5d4193e1530aadd46f01",
          "blockNumber": "0xedc39e",
          "transactionHash": "0x5ad51f4b57a440bf776ba441aedd0995423fdd1e57df222e0c2d71de676f10b1",
          "transactionIndex": "0x8",
          "logIndex": "0x12",
          "removed": false
        }
      ],
      "logsBloom": "0x00000000000000000000000000000000000000000000000000000000000000000000000000000000000000000000000000000000000000000800000000000080000000000000000000000000000000000000000000000000000000000000000000000000000000000000000000000000000000000000000100000000000000000000000000000000000000000200000000000000000000000000000000000000000000000000000000000000000000000000000000000000000002000000000000000000000000000000000000000000000000000000000000040000000000000000000000000000000000000000000000000000000000000000000000000000",
      "type": "0x2",
      "transactionHash": "0x5ad51f4b57a440bf776ba441aedd0995423fdd1e57df222e0c2d71de676f10b1",
      "transactionIndex": "0x8",
      "blockHash": "0x1136ca486d75922ec4fab10b4c904be560629735413c5d4193e1530aadd46f01",
      "blockNumber": "0xedc39e",
      "gasUsed": "0xba1b",
      "effectiveGasPrice": "0xc539",
      "from": "0x8888111f8d7b999009a88224ce5acfc8fa500ddc",
      "to": "0x83473d55a8b4415b980d51ec9753c8fb19d26f82",
      "contractAddress": null,
      "l1BaseFeeScalar": "0x44d",
      "l1BlobBaseFee": "0x1",
      "l1BlobBaseFeeScalar": "0xa118b",
      "l1Fee": "0x7757d465f",
      "l1GasPrice": "0x43bf3a3f7",
      "l1GasUsed": "0x640"
    },
    {
      "status": "0x1",
      "cumulativeGasUsed": "0xd8f01",
      "logs": [
        {
          "address": "0x83473d55a8b4415b980d51ec9753c8fb19d26f82",
          "topics": [
            "0x238399d427b947898edb290f5ff0f9109849b1c3ba196a42e35f00c50a54b98b"
          ],
          "data": "0x0000000000000000000000000000000000000000000000000000000000009d820000000000000000000000000b18692d2f4059f13baa765816bfbd07776f7d8b",
          "blockHash": "0x1136ca486d75922ec4fab10b4c904be560629735413c5d4193e1530aadd46f01",
          "blockNumber": "0xedc39e",
          "transactionHash": "0xd9442715b0e9430f4a4238939d30042140081e3a6fea4871bf6eb8eddc83a673",
          "transactionIndex": "0x9",
          "logIndex": "0x13",
          "removed": false
        }
      ],
      "logsBloom": "0x00000000000000000000000000000000000000000000000000000000000000000000000000000000000000000000000000000000000000000800000000000080000000000000000000000000000000000000000000000000000000000000000000000000000000000000000000000000000000000000000100000000000000000000000000000000000000000200000000000000000000000000000000000000000000000000000000000000000000000000000000000000000002000000000000000000000000000000000000000000000000000000000000040000000000000000000000000000000000000000000000000000000000000000000000000000",
      "type": "0x2",
      "transactionHash": "0xd9442715b0e9430f4a4238939d30042140081e3a6fea4871bf6eb8eddc83a673",
      "transactionIndex": "0x9",
      "blockHash": "0x1136ca486d75922ec4fab10b4c904be560629735413c5d4193e1530aadd46f01",
      "blockNumber": "0xedc39e",
      "gasUsed": "0xba1b",
      "effectiveGasPrice": "0xc539",
      "from": "0x8888111f8d7b999009a88224ce5acfc8fa500ddc",
      "to": "0x83473d55a8b4415b980d51ec9753c8fb19d26f82",
      "contractAddress": null,
      "l1BaseFeeScalar": "0x44d",
      "l1BlobBaseFee": "0x1",
      "l1BlobBaseFeeScalar": "0xa118b",
      "l1Fee": "0x7757d465f",
      "l1GasPrice": "0x43bf3a3f7",
      "l1GasUsed": "0x640"
    }
  ],
  "libraries": [],
  "pending": [],
  "returns": {},
  "timestamp": 1726932515,
  "chain": 84532,
  "commit": "257d58a"
}