{
  "transactions": [
    {
      "hash": "0x4ceb3fc04ee2817b33ab9dd51829ed9126e091e0521e4587438a459a8fd48e38",
      "transactionType": "CALL",
      "contractName": null,
      "contractAddress": "0xcf06f7bc9d3cd7b068f059ab4c19f237f3a40f8c",
      "function": "setPeer(uint32,bytes32)",
      "arguments": [
        "40161",
        "0x000000000000000000000000cf06f7bc9d3cd7b068f059ab4c19f237f3a40f8c"
      ],
      "transaction": {
        "from": "0x8888111f8d7b999009a88224ce5acfc8fa500ddc",
        "to": "0xcf06f7bc9d3cd7b068f059ab4c19f237f3a40f8c",
        "gas": "0x1102d",
        "value": "0x0",
        "input": "0x3400288b0000000000000000000000000000000000000000000000000000000000009ce1000000000000000000000000cf06f7bc9d3cd7b068f059ab4c19f237f3a40f8c",
        "nonce": "0x1",
        "chainId": "0x14a34"
      },
      "additionalContracts": [],
      "isFixedGasLimit": false
    }
  ],
  "receipts": [
    {
      "status": "0x1",
      "cumulativeGasUsed": "0x1f4e97",
      "logs": [
        {
          "address": "0xcf06f7bc9d3cd7b068f059ab4c19f237f3a40f8c",
          "topics": [
            "0x238399d427b947898edb290f5ff0f9109849b1c3ba196a42e35f00c50a54b98b"
          ],
          "data": "0x0000000000000000000000000000000000000000000000000000000000009ce1000000000000000000000000cf06f7bc9d3cd7b068f059ab4c19f237f3a40f8c",
          "blockHash": "0x056e2de28885feee48b19baf2bd70f63a4cfeb36724b9fcdfcffecf289462fdc",
          "blockNumber": "0xed1e80",
          "transactionHash": "0x4ceb3fc04ee2817b33ab9dd51829ed9126e091e0521e4587438a459a8fd48e38",
          "transactionIndex": "0x1a",
          "logIndex": "0x1a",
          "removed": false
        }
      ],
      "logsBloom": "0x00000000000000000000000000000000000000000000000000000000000000000000000000000000000000000000000000000000200000000800000000000000000000000000000000000000000000000000000000000000000000000000000000000010001000000000000000000000000000000000000000000000000000000000000000000000000000000000000000000000000000000000000000000000000000000000000000000000000000000000000000000000000002000000000000000000000000000000000000000000000000000000000000040000000000000000000000000000000000000000000000000000000000000000000000000000",
      "type": "0x2",
      "transactionHash": "0x4ceb3fc04ee2817b33ab9dd51829ed9126e091e0521e4587438a459a8fd48e38",
      "transactionIndex": "0x1a",
      "blockHash": "0x056e2de28885feee48b19baf2bd70f63a4cfeb36724b9fcdfcffecf289462fdc",
      "blockNumber": "0xed1e80",
      "gasUsed": "0xba1b",
      "effectiveGasPrice": "0x176",
      "from": "0x8888111f8d7b999009a88224ce5acfc8fa500ddc",
      "to": "0xcf06f7bc9d3cd7b068f059ab4c19f237f3a40f8c",
      "contractAddress": null,
      "l1BaseFeeScalar": "0x44d",
      "l1BlobBaseFee": "0x6dbe41789",
      "l1BlobBaseFeeScalar": "0xa118b",
      "l1Fee": "0x1cc0cc5ffc2",
      "l1GasPrice": "0x43c50ec86",
      "l1GasUsed": "0x640"
    }
  ],
  "libraries": [],
  "pending": [],
  "returns": {},
  "timestamp": 1726847974,
  "chain": 84532,
  "commit": "4e563d5"
}