{
  "deployments": [
    {
      "transactions": [
        {
          "hash": "0x9352c53afe4e5fee07452776915d00f0e96ee7b61cda7082f2dd96064ab03b16",
          "transactionType": "CALL",
          "contractName": null,
          "contractAddress": "0xcf06f7bc9d3cd7b068f059ab4c19f237f3a40f8c",
          "function": "setPeer(uint32,bytes32)",
          "arguments": [
            "40245",
            "0x000000000000000000000000cf06f7bc9d3cd7b068f059ab4c19f237f3a40f8c"
          ],
          "transaction": {
            "from": "0x8888111f8d7b999009a88224ce5acfc8fa500ddc",
            "to": "0xcf06f7bc9d3cd7b068f059ab4c19f237f3a40f8c",
            "gas": "0x1102d",
            "value": "0x0",
            "input": "0x3400288b0000000000000000000000000000000000000000000000000000000000009d35000000000000000000000000cf06f7bc9d3cd7b068f059ab4c19f237f3a40f8c",
            "nonce": "0x1",
            "chainId": "0xaa36a7"
          },
          "additionalContracts": [],
          "isFixedGasLimit": false
        }
      ],
      "receipts": [
        {
          "status": "0x1",
          "cumulativeGasUsed": "0x5e283c",
          "logs": [
            {
              "address": "0xcf06f7bc9d3cd7b068f059ab4c19f237f3a40f8c",
              "topics": [
                "0x238399d427b947898edb290f5ff0f9109849b1c3ba196a42e35f00c50a54b98b"
              ],
              "data": "0x0000000000000000000000000000000000000000000000000000000000009d35000000000000000000000000cf06f7bc9d3cd7b068f059ab4c19f237f3a40f8c",
              "blockHash": "0x4391fe3887f834afd908c3218bf420475a970a185c6eb342dfb72357f9f2abf4",
              "blockNumber": "0x66a91a",
              "transactionHash": "0x9352c53afe4e5fee07452776915d00f0e96ee7b61cda7082f2dd96064ab03b16",
              "transactionIndex": "0x5a",
              "logIndex": "0x5b",
              "removed": false
            }
          ],
          "logsBloom": "0x00000000000000000000000000000000000000000000000000000000000000000000000000000000000000000000000000000000200000000800000000000000000000000000000000000000000000000000000000000000000000000000000000000010001000000000000000000000000000000000000000000000000000000000000000000000000000000000000000000000000000000000000000000000000000000000000000000000000000000000000000000000000002000000000000000000000000000000000000000000000000000000000000040000000000000000000000000000000000000000000000000000000000000000000000000000",
          "type": "0x2",
          "transactionHash": "0x9352c53afe4e5fee07452776915d00f0e96ee7b61cda7082f2dd96064ab03b16",
          "transactionIndex": "0x5a",
          "blockHash": "0x4391fe3887f834afd908c3218bf420475a970a185c6eb342dfb72357f9f2abf4",
          "blockNumber": "0x66a91a",
          "gasUsed": "0xba1b",
          "effectiveGasPrice": "0x6ee0ef3e6",
          "from": "0x8888111f8d7b999009a88224ce5acfc8fa500ddc",
          "to": "0xcf06f7bc9d3cd7b068f059ab4c19f237f3a40f8c",
          "contractAddress": null
        }
      ],
      "libraries": [],
      "pending": [],
      "returns": {},
      "timestamp": 1726846650,
      "chain": 11155111,
      "commit": "4e563d5"
    },
    {
      "transactions": [
        {
          "hash": "0x0f3e65c7e6a5ad7bda6276daaa9e5e254ea244d4ccb1e4c73043e5f6d8531e77",
          "transactionType": "CALL",
          "contractName": null,
          "contractAddress": "0xcf06f7bc9d3cd7b068f059ab4c19f237f3a40f8c",
          "function": "setPeer(uint32,bytes32)",
          "arguments": [
            "40161",
            "0x000000000000000000000000cf06f7bc9d3cd7b068f059ab4c19f237f3a40f8c"
          ],
          "transaction": {
            "from": "0x8888111f8d7b999009a88224ce5acfc8fa500ddc",
            "to": "0xcf06f7bc9d3cd7b068f059ab4c19f237f3a40f8c",
            "gas": "0x1102d",
            "value": "0x0",
            "input": "0x3400288b0000000000000000000000000000000000000000000000000000000000009ce1000000000000000000000000cf06f7bc9d3cd7b068f059ab4c19f237f3a40f8c",
            "nonce": "0x1",
            "chainId": "0x14a34"
          },
          "additionalContracts": [],
          "isFixedGasLimit": false
        }
      ],
      "receipts": [],
      "libraries": [],
      "pending": [],
      "returns": {},
      "timestamp": 1726846651,
      "chain": 84532,
      "commit": "4e563d5"
    }
  ],
  "timestamp": 1726846781
}