{
  "transactions": [
    {
      "hash": "0xe6965f446ede97d542a60dd008f6cae07fc71a3084dab56eb3a5b012d3f11c67",
      "transactionType": "CALL",
      "contractName": null,
      "contractAddress": "0x7b79995e5f793a07bc00c21412e50ecae098e7f9",
      "function": "deposit()",
      "arguments": [],
      "transaction": {
        "from": "0x8888111f8d7b999009a88224ce5acfc8fa500ddc",
        "to": "0x7b79995e5f793a07bc00c21412e50ecae098e7f9",
        "gas": "0xf24e",
        "value": "0x527bb933277d",
        "input": "0xd0e30db0",
        "nonce": "0xc",
        "chainId": "0xaa36a7"
      },
      "additionalContracts": [],
      "isFixedGasLimit": false
    },
    {
      "hash": "0xc5750601a717232eb0b9e524b3ff1bc0a6be023ba8432af47f6cc1c49ab5c97f",
      "transactionType": "CALL",
      "contractName": null,
      "contractAddress": "0x7b79995e5f793a07bc00c21412e50ecae098e7f9",
      "function": "approve(address,uint256)",
      "arguments": [
        "0x903A4726c67e5Ea06Edf29CA780c539B5137d170",
        "90691341592445"
      ],
      "transaction": {
        "from": "0x8888111f8d7b999009a88224ce5acfc8fa500ddc",
        "to": "0x7b79995e5f793a07bc00c21412e50ecae098e7f9",
        "gas": "0xf85d",
        "value": "0x0",
        "input": "0x095ea7b3000000000000000000000000903a4726c67e5ea06edf29ca780c539b5137d1700000000000000000000000000000000000000000000000000000527bb933277d",
        "nonce": "0xd",
        "chainId": "0xaa36a7"
      },
      "additionalContracts": [],
      "isFixedGasLimit": false
    },
    {
      "hash": "0xa40833b7ce46e872b922821e1dc830e071dd0a1bf5801f4a67b4853c5d17759c",
      "transactionType": "CALL",
      "contractName": null,
      "contractAddress": "0x903a4726c67e5ea06edf29ca780c539b5137d170",
      "function": "bridgeWithLayerZero(uint32,uint128,address,uint256)",
      "arguments": [
        "40245",
        "1000",
        "0x8888111F8D7b999009A88224Ce5aCfC8Fa500ddc",
        "90691341592445"
      ],
      "transaction": {
        "from": "0x8888111f8d7b999009a88224ce5acfc8fa500ddc",
        "to": "0x903a4726c67e5ea06edf29ca780c539b5137d170",
        "gas": "0x5643e",
        "value": "0x0",
        "input": "0xe0e03ef10000000000000000000000000000000000000000000000000000000000009d3500000000000000000000000000000000000000000000000000000000000003e80000000000000000000000008888111f8d7b999009a88224ce5acfc8fa500ddc0000000000000000000000000000000000000000000000000000527bb933277d",
        "nonce": "0xe",
        "chainId": "0xaa36a7"
      },
      "additionalContracts": [],
      "isFixedGasLimit": false
    }
  ],
  "receipts": [
    {
      "status": "0x1",
      "cumulativeGasUsed": "0xc1dcdb",
      "logs": [
        {
          "address": "0x7b79995e5f793a07bc00c21412e50ecae098e7f9",
          "topics": [
            "0xe1fffcc4923d04b559f4d29a8bfc6cda04eb5b0d3c460751c2402c5c5cc9109c",
            "0x0000000000000000000000008888111f8d7b999009a88224ce5acfc8fa500ddc"
          ],
          "data": "0x0000000000000000000000000000000000000000000000000000527bb933277d",
          "blockHash": "0xacd9fc6c8deb4d01b6b3580ec769db1610a095f88f1704ba7582fd7cc33905b1",
          "blockNumber": "0x66b67e",
          "transactionHash": "0xe6965f446ede97d542a60dd008f6cae07fc71a3084dab56eb3a5b012d3f11c67",
          "transactionIndex": "0x38",
          "logIndex": "0x65",
          "removed": false
        }
      ],
      "logsBloom": "0x00000000000000000000000000000000000000000000000000000004000000000000000000000000000000000000000000000000000000000000000000000000000000000000000000000000000000000000000000000000000000008000000000000000000000000000000000000010000000000000000000000000000000000000000000000000000000000000000000000001000000000000000000000000000000000000000000000000000000080000000040000100000000000000000000000002000000000000000000000000000000000000000000000000000000000000000000000000000000000000000000000000000000400000000000000000",
      "type": "0x2",
      "transactionHash": "0xe6965f446ede97d542a60dd008f6cae07fc71a3084dab56eb3a5b012d3f11c67",
      "transactionIndex": "0x38",
      "blockHash": "0xacd9fc6c8deb4d01b6b3580ec769db1610a095f88f1704ba7582fd7cc33905b1",
      "blockNumber": "0x66b67e",
      "gasUsed": "0xaf6e",
      "effectiveGasPrice": "0x2d77526a7",
      "from": "0x8888111f8d7b999009a88224ce5acfc8fa500ddc",
      "to": "0x7b79995e5f793a07bc00c21412e50ecae098e7f9",
      "contractAddress": null
    },
    {
      "status": "0x1",
      "cumulativeGasUsed": "0xc290ab",
      "logs": [
        {
          "address": "0x7b79995e5f793a07bc00c21412e50ecae098e7f9",
          "topics": [
            "0x8c5be1e5ebec7d5bd14f71427d1e84f3dd0314c0f7b2291e5b200ac8c7c3b925",
            "0x0000000000000000000000008888111f8d7b999009a88224ce5acfc8fa500ddc",
            "0x000000000000000000000000903a4726c67e5ea06edf29ca780c539b5137d170"
          ],
          "data": "0x0000000000000000000000000000000000000000000000000000527bb933277d",
          "blockHash": "0xacd9fc6c8deb4d01b6b3580ec769db1610a095f88f1704ba7582fd7cc33905b1",
          "blockNumber": "0x66b67e",
          "transactionHash": "0xc5750601a717232eb0b9e524b3ff1bc0a6be023ba8432af47f6cc1c49ab5c97f",
          "transactionIndex": "0x39",
          "logIndex": "0x66",
          "removed": false
        }
      ],
      "logsBloom": "0x00000000000000000000000000000000000000000000000000000004000000000000000000000000000000000000000000000000000000000000000000200000000000000000000000000000000000000000000000000000000000000000000000000000000000000000000000000010002000000000000000000000008000000000000000000000000000000000000000000000000000000000000000000000020000000000000000000000000000080000000840000100000000000000000000000002000000000000000000000000000000000000000000000000000000000010000000000000000000000000000000000000000000000000000000000000",
      "type": "0x2",
      "transactionHash": "0xc5750601a717232eb0b9e524b3ff1bc0a6be023ba8432af47f6cc1c49ab5c97f",
      "transactionIndex": "0x39",
      "blockHash": "0xacd9fc6c8deb4d01b6b3580ec769db1610a095f88f1704ba7582fd7cc33905b1",
      "blockNumber": "0x66b67e",
      "gasUsed": "0xb3d0",
      "effectiveGasPrice": "0x2d77526a7",
      "from": "0x8888111f8d7b999009a88224ce5acfc8fa500ddc",
      "to": "0x7b79995e5f793a07bc00c21412e50ecae098e7f9",
      "contractAddress": null
    },
    {
      "status": "0x1",
      "cumulativeGasUsed": "0xc6406d",
      "logs": [
        {
          "address": "0x7b79995e5f793a07bc00c21412e50ecae098e7f9",
          "topics": [
            "0xddf252ad1be2c89b69c2b068fc378daa952ba7f163c4a11628f55a4df523b3ef",
            "0x0000000000000000000000008888111f8d7b999009a88224ce5acfc8fa500ddc",
            "0x000000000000000000000000903a4726c67e5ea06edf29ca780c539b5137d170"
          ],
          "data": "0x0000000000000000000000000000000000000000000000000000527bb933277d",
          "blockHash": "0xacd9fc6c8deb4d01b6b3580ec769db1610a095f88f1704ba7582fd7cc33905b1",
          "blockNumber": "0x66b67e",
          "transactionHash": "0xa40833b7ce46e872b922821e1dc830e071dd0a1bf5801f4a67b4853c5d17759c",
          "transactionIndex": "0x3a",
          "logIndex": "0x67",
          "removed": false
        },
        {
          "address": "0x903a4726c67e5ea06edf29ca780c539b5137d170",
          "topics": [
            "0xdd970dd9b5bfe707922155b058a407655cb18288b807e2216442bca8ad83d6b5"
          ],
          "data": "0x000000000000000000000000000000000000000000000000000000000000004000000000000000000000000000000000000000000000000000000000000008c000000000000000000000000000000000000000000000000000000000000000077265636569766500000000000000000000000000000000000000000000000000",
          "blockHash": "0xacd9fc6c8deb4d01b6b3580ec769db1610a095f88f1704ba7582fd7cc33905b1",
          "blockNumber": "0x66b67e",
          "transactionHash": "0xa40833b7ce46e872b922821e1dc830e071dd0a1bf5801f4a67b4853c5d17759c",
          "transactionIndex": "0x3a",
          "logIndex": "0x68",
          "removed": false
        },
        {
          "address": "0x7b79995e5f793a07bc00c21412e50ecae098e7f9",
          "topics": [
            "0x7fcf532c15f0a6db0bd6d0e038bea71d30d808c7d98cb3bf7268a95bf5081b65",
            "0x000000000000000000000000903a4726c67e5ea06edf29ca780c539b5137d170"
          ],
          "data": "0x0000000000000000000000000000000000000000000000000000527bb933277d",
          "blockHash": "0xacd9fc6c8deb4d01b6b3580ec769db1610a095f88f1704ba7582fd7cc33905b1",
          "blockNumber": "0x66b67e",
          "transactionHash": "0xa40833b7ce46e872b922821e1dc830e071dd0a1bf5801f4a67b4853c5d17759c",
          "transactionIndex": "0x3a",
          "logIndex": "0x69",
          "removed": false
        },
        {
          "address": "0xcc1ae8cf5d3904cef3360a9532b477529b177cce",
          "topics": [
            "0x61ed099e74a97a1d7f8bb0952a88ca8b7b8ebd00c126ea04671f92a81213318a"
          ],
          "data": "0x000000000000000000000000718b92b5cb0a5552039b593faf724d182a881eda00000000000000000000000000000000000000000000000000004e7b946183ca",
          "blockHash": "0xacd9fc6c8deb4d01b6b3580ec769db1610a095f88f1704ba7582fd7cc33905b1",
          "blockNumber": "0x66b67e",
          "transactionHash": "0xa40833b7ce46e872b922821e1dc830e071dd0a1bf5801f4a67b4853c5d17759c",
          "transactionIndex": "0x3a",
          "logIndex": "0x6a",
          "removed": false
        },
        {
          "address": "0xcc1ae8cf5d3904cef3360a9532b477529b177cce",
          "topics": [
            "0x07ea52d82345d6e838192107d8fd7123d9c2ec8e916cd0aad13fd2b60db24644"
          ],
          "data": "0x000000000000000000000000000000000000000000000000000000000000006000000000000000000000000000000000000000000000000000000000000000a000000000000000000000000000000000000000000000000000000000000000c000000000000000000000000000000000000000000000000000000000000000010000000000000000000000008eebf8b423b73bfca51a1db4b7354aa0bfca9193000000000000000000000000000000000000000000000000000000000000000000000000000000000000000000000000000000000000000000000000000000010000000000000000000000000000000000000000000000000000040024d1a3b3",
          "blockHash": "0xacd9fc6c8deb4d01b6b3580ec769db1610a095f88f1704ba7582fd7cc33905b1",
          "blockNumber": "0x66b67e",
          "transactionHash": "0xa40833b7ce46e872b922821e1dc830e071dd0a1bf5801f4a67b4853c5d17759c",
          "transactionIndex": "0x3a",
          "logIndex": "0x6b",
          "removed": false
        },
        {
          "address": "0x6edce65403992e310a62460808c4b910d972f10f",
          "topics": [
            "0x1ab700d4ced0c005b164c0f789fd09fcbb0156d4c2041b8a3bfbcd961cd1567f"
          ],
          "data": "0x00000000000000000000000000000000000000000000000000000000000000600000000000000000000000000000000000000000000000000000000000000100000000000000000000000000cc1ae8cf5d3904cef3360a9532b477529b177cce000000000000000000000000000000000000000000000000000000000000007101000000000000000300009ce1000000000000000000000000cf06f7bc9d3cd7b068f059ab4c19f237f3a40f8c00009d35000000000000000000000000cf06f7bc9d3cd7b068f059ab4c19f237f3a40f8cec5a79d0f2071acf92551ed5475f38235ffc0ab1d23627b1fda16a508332a9ad000000000000000000000000000000000000000000000000000000000000000000000000000000000000000000004a00030100110100000000000000000000000000030d4001003102000000000000000000000000000003e80000000000000000000000008888111f8d7b999009a88224ce5acfc8fa500ddc00000000000000000000000000000000000000000000",
          "blockHash": "0xacd9fc6c8deb4d01b6b3580ec769db1610a095f88f1704ba7582fd7cc33905b1",
          "blockNumber": "0x66b67e",
          "transactionHash": "0xa40833b7ce46e872b922821e1dc830e071dd0a1bf5801f4a67b4853c5d17759c",
          "transactionIndex": "0x3a",
          "logIndex": "0x6c",
          "removed": false
        }
      ],
      "logsBloom": "0x00000000000000000000000000000000000000000000000000000004000100000000000000000000200000000000100000000040000000000000000000800000000000000000000000000008000000000000000000400000000000000000000000002000000000008200000000000010002000000000040000000010008000000000000000000020000000280000000000000000000000000000000000000000000000008000000000100000000000080000000840400100000440000000000000000002000000000000000000000000000000080000000040000002000000000000040000000000000000000000002000000000000000000000000000000020",
      "type": "0x2",
      "transactionHash": "0xa40833b7ce46e872b922821e1dc830e071dd0a1bf5801f4a67b4853c5d17759c",
      "transactionIndex": "0x3a",
      "blockHash": "0xacd9fc6c8deb4d01b6b3580ec769db1610a095f88f1704ba7582fd7cc33905b1",
      "blockNumber": "0x66b67e",
      "gasUsed": "0x3afc2",
      "effectiveGasPrice": "0x2d77526a7",
      "from": "0x8888111f8d7b999009a88224ce5acfc8fa500ddc",
      "to": "0x903a4726c67e5ea06edf29ca780c539b5137d170",
      "contractAddress": null
    }
  ],
  "libraries": [],
  "pending": [],
  "returns": {},
  "timestamp": 1726896064,
  "chain": 11155111,
  "commit": "ebcef3f"
}