{
  "transactions": [
    {
      "hash": "0x7b878074437eb60b16b057cf89706c405320fdd245c9a93b32fe80ebf397c9cb",
      "transactionType": "CALL",
      "contractName": "WETH",
      "contractAddress": "0x7b79995e5f793a07bc00c21412e50ecae098e7f9",
      "function": "deposit()",
      "arguments": [],
      "transaction": {
        "from": "0x8888111f8d7b999009a88224ce5acfc8fa500ddc",
        "to": "0x7b79995e5f793a07bc00c21412e50ecae098e7f9",
        "gas": "0x9edf",
        "value": "0xa69bf8070a3a",
        "input": "0xd0e30db0",
        "nonce": "0x32",
        "chainId": "0xaa36a7"
      },
      "additionalContracts": [],
      "isFixedGasLimit": false
    },
    {
      "hash": "0x292ace4dbd2d5b5da01fa05d73d188acbf863f0b19eaca0871324e8dba6d14b3",
      "transactionType": "CALL",
      "contractName": "WETH",
      "contractAddress": "0x7b79995e5f793a07bc00c21412e50ecae098e7f9",
      "function": "approve(address,uint256)",
      "arguments": [
        "0x290e31032c33331D724298544663dB502C8cC77D",
        "183188811352634"
      ],
      "transaction": {
        "from": "0x8888111f8d7b999009a88224ce5acfc8fa500ddc",
        "to": "0x7b79995e5f793a07bc00c21412e50ecae098e7f9",
        "gas": "0xf85d",
        "value": "0x0",
        "input": "0x095ea7b3000000000000000000000000290e31032c33331d724298544663db502c8cc77d0000000000000000000000000000000000000000000000000000a69bf8070a3a",
        "nonce": "0x33",
        "chainId": "0xaa36a7"
      },
      "additionalContracts": [],
      "isFixedGasLimit": false
    },
    {
      "hash": "0xfea102f48a5ddb311b9342b2816bbd915c1c8219d959c050c080ae6ed0751728",
      "transactionType": "CALL",
      "contractName": null,
      "contractAddress": "0x290e31032c33331d724298544663db502c8cc77d",
      "function": "bridgeWithLayerZero((uint32,uint128,uint256)[],address,uint256)",
      "arguments": [
        "[(40245, 1000, 183188811352634)]",
        "0x8888111F8D7b999009A88224Ce5aCfC8Fa500ddc",
        "183188811352634"
      ],
      "transaction": {
        "from": "0x8888111f8d7b999009a88224ce5acfc8fa500ddc",
        "to": "0x290e31032c33331d724298544663db502c8cc77d",
        "gas": "0x55487",
        "value": "0x0",
        "input": "0xcccabd8100000000000000000000000000000000000000000000000000000000000000600000000000000000000000008888111f8d7b999009a88224ce5acfc8fa500ddc0000000000000000000000000000000000000000000000000000a69bf8070a3a00000000000000000000000000000000000000000000000000000000000000010000000000000000000000000000000000000000000000000000000000009d3500000000000000000000000000000000000000000000000000000000000003e80000000000000000000000000000000000000000000000000000a69bf8070a3a",
        "nonce": "0x34",
        "chainId": "0xaa36a7"
      },
      "additionalContracts": [],
      "isFixedGasLimit": false
    }
  ],
  "receipts": [
    {
      "status": "0x1",
      "cumulativeGasUsed": "0xe60bad",
      "logs": [
        {
          "address": "0x7b79995e5f793a07bc00c21412e50ecae098e7f9",
          "topics": [
            "0xe1fffcc4923d04b559f4d29a8bfc6cda04eb5b0d3c460751c2402c5c5cc9109c",
            "0x0000000000000000000000008888111f8d7b999009a88224ce5acfc8fa500ddc"
          ],
          "data": "0x0000000000000000000000000000000000000000000000000000a69bf8070a3a",
          "blockHash": "0x9834a415441348576748200fc315fa5e15bf7e471c321e4da874af9984d7bff4",
          "blockNumber": "0x66bfd2",
          "transactionHash": "0x7b878074437eb60b16b057cf89706c405320fdd245c9a93b32fe80ebf397c9cb",
          "transactionIndex": "0x60",
          "logIndex": "0x93",
          "removed": false
        }
      ],
      "logsBloom": "0x00000000000000000000000000000000000000000000000000000004000000000000000000000000000000000000000000000000000000000000000000000000000000000000000000000000000000000000000000000000000000008000000000000000000000000000000000000010000000000000000000000000000000000000000000000000000000000000000000000001000000000000000000000000000000000000000000000000000000080000000040000100000000000000000000000002000000000000000000000000000000000000000000000000000000000000000000000000000000000000000000000000000000400000000000000000",
      "type": "0x2",
      "transactionHash": "0x7b878074437eb60b16b057cf89706c405320fdd245c9a93b32fe80ebf397c9cb",
      "transactionIndex": "0x60",
      "blockHash": "0x9834a415441348576748200fc315fa5e15bf7e471c321e4da874af9984d7bff4",
      "blockNumber": "0x66bfd2",
      "gasUsed": "0x6ca2",
      "effectiveGasPrice": "0x4741f07aa",
      "from": "0x8888111f8d7b999009a88224ce5acfc8fa500ddc",
      "to": "0x7b79995e5f793a07bc00c21412e50ecae098e7f9",
      "contractAddress": null
    },
    {
      "status": "0x1",
      "cumulativeGasUsed": "0xe6bf7d",
      "logs": [
        {
          "address": "0x7b79995e5f793a07bc00c21412e50ecae098e7f9",
          "topics": [
            "0x8c5be1e5ebec7d5bd14f71427d1e84f3dd0314c0f7b2291e5b200ac8c7c3b925",
            "0x0000000000000000000000008888111f8d7b999009a88224ce5acfc8fa500ddc",
            "0x000000000000000000000000290e31032c33331d724298544663db502c8cc77d"
          ],
          "data": "0x0000000000000000000000000000000000000000000000000000a69bf8070a3a",
          "blockHash": "0x9834a415441348576748200fc315fa5e15bf7e471c321e4da874af9984d7bff4",
          "blockNumber": "0x66bfd2",
          "transactionHash": "0x292ace4dbd2d5b5da01fa05d73d188acbf863f0b19eaca0871324e8dba6d14b3",
          "transactionIndex": "0x61",
          "logIndex": "0x94",
          "removed": false
        }
      ],
      "logsBloom": "0x00000000000000000000000040000000000000000000000000000004000000000000000000000000000000000000000000000000000000000000000000200000000000000000000000000000000000000000000000400000000000000000000000000000000000000000000000000010000000000000000000000000000000000000000000000000000000000000000000000000000000000000000000000000020000000000000000000000000000080000000040000100000000000000000000000002000000000000000000000000000000000000010000000000000000000010000000000000000000000000000000000000000000000000000000000000",
      "type": "0x2",
      "transactionHash": "0x292ace4dbd2d5b5da01fa05d73d188acbf863f0b19eaca0871324e8dba6d14b3",
      "transactionIndex": "0x61",
      "blockHash": "0x9834a415441348576748200fc315fa5e15bf7e471c321e4da874af9984d7bff4",
      "blockNumber": "0x66bfd2",
      "gasUsed": "0xb3d0",
      "effectiveGasPrice": "0x4741f07aa",
      "from": "0x8888111f8d7b999009a88224ce5acfc8fa500ddc",
      "to": "0x7b79995e5f793a07bc00c21412e50ecae098e7f9",
      "contractAddress": null
    },
    {
      "status": "0x1",
      "cumulativeGasUsed": "0xea9b62",
      "logs": [
        {
          "address": "0x7b79995e5f793a07bc00c21412e50ecae098e7f9",
          "topics": [
            "0xddf252ad1be2c89b69c2b068fc378daa952ba7f163c4a11628f55a4df523b3ef",
            "0x0000000000000000000000008888111f8d7b999009a88224ce5acfc8fa500ddc",
            "0x000000000000000000000000290e31032c33331d724298544663db502c8cc77d"
          ],
          "data": "0x0000000000000000000000000000000000000000000000000000a69bf8070a3a",
          "blockHash": "0x9834a415441348576748200fc315fa5e15bf7e471c321e4da874af9984d7bff4",
          "blockNumber": "0x66bfd2",
          "transactionHash": "0xfea102f48a5ddb311b9342b2816bbd915c1c8219d959c050c080ae6ed0751728",
          "transactionIndex": "0x62",
          "logIndex": "0x95",
          "removed": false
        },
        {
          "address": "0x7b79995e5f793a07bc00c21412e50ecae098e7f9",
          "topics": [
            "0x7fcf532c15f0a6db0bd6d0e038bea71d30d808c7d98cb3bf7268a95bf5081b65",
            "0x000000000000000000000000290e31032c33331d724298544663db502c8cc77d"
          ],
          "data": "0x0000000000000000000000000000000000000000000000000000a69bf8070a3a",
          "blockHash": "0x9834a415441348576748200fc315fa5e15bf7e471c321e4da874af9984d7bff4",
          "blockNumber": "0x66bfd2",
          "transactionHash": "0xfea102f48a5ddb311b9342b2816bbd915c1c8219d959c050c080ae6ed0751728",
          "transactionIndex": "0x62",
          "logIndex": "0x96",
          "removed": false
        },
        {
          "address": "0xcc1ae8cf5d3904cef3360a9532b477529b177cce",
          "topics": [
            "0x61ed099e74a97a1d7f8bb0952a88ca8b7b8ebd00c126ea04671f92a81213318a"
          ],
          "data": "0x000000000000000000000000718b92b5cb0a5552039b593faf724d182a881eda00000000000000000000000000000000000000000000000000004e7b946183ca",
          "blockHash": "0x9834a415441348576748200fc315fa5e15bf7e471c321e4da874af9984d7bff4",
          "blockNumber": "0x66bfd2",
          "transactionHash": "0xfea102f48a5ddb311b9342b2816bbd915c1c8219d959c050c080ae6ed0751728",
          "transactionIndex": "0x62",
          "logIndex": "0x97",
          "removed": false
        },
        {
          "address": "0xcc1ae8cf5d3904cef3360a9532b477529b177cce",
          "topics": [
            "0x07ea52d82345d6e838192107d8fd7123d9c2ec8e916cd0aad13fd2b60db24644"
          ],
          "data": "0x000000000000000000000000000000000000000000000000000000000000006000000000000000000000000000000000000000000000000000000000000000a000000000000000000000000000000000000000000000000000000000000000c000000000000000000000000000000000000000000000000000000000000000010000000000000000000000008eebf8b423b73bfca51a1db4b7354aa0bfca9193000000000000000000000000000000000000000000000000000000000000000000000000000000000000000000000000000000000000000000000000000000010000000000000000000000000000000000000000000000000000040024d1a3b3",
          "blockHash": "0x9834a415441348576748200fc315fa5e15bf7e471c321e4da874af9984d7bff4",
          "blockNumber": "0x66bfd2",
          "transactionHash": "0xfea102f48a5ddb311b9342b2816bbd915c1c8219d959c050c080ae6ed0751728",
          "transactionIndex": "0x62",
          "logIndex": "0x98",
          "removed": false
        },
        {
          "address": "0x6edce65403992e310a62460808c4b910d972f10f",
          "topics": [
            "0x1ab700d4ced0c005b164c0f789fd09fcbb0156d4c2041b8a3bfbcd961cd1567f"
          ],
          "data": "0x00000000000000000000000000000000000000000000000000000000000000600000000000000000000000000000000000000000000000000000000000000100000000000000000000000000cc1ae8cf5d3904cef3360a9532b477529b177cce000000000000000000000000000000000000000000000000000000000000007101000000000000000300009ce100000000000000000000000011545fe290a922c557274d4b53ef3880175d40d800009d350000000000000000000000004cd5d8ec1e9c3909d14f378f3348f3ab0a04e1729378fae15649c8241f51ec1458b53ce2c9c555272602201ac1c01c855ea8cad5000000000000000000000000000000000000000000000000000000000000000000000000000000000000000000004a00030100110100000000000000000000000000030d4001003102000000000000000000000000000003e80000000000000000000000008888111f8d7b999009a88224ce5acfc8fa500ddc00000000000000000000000000000000000000000000",
          "blockHash": "0x9834a415441348576748200fc315fa5e15bf7e471c321e4da874af9984d7bff4",
          "blockNumber": "0x66bfd2",
          "transactionHash": "0xfea102f48a5ddb311b9342b2816bbd915c1c8219d959c050c080ae6ed0751728",
          "transactionIndex": "0x62",
          "logIndex": "0x99",
          "removed": false
        }
      ],
      "logsBloom": "0x00000000000000000000000040000000000000000000000000000004000100000000000000000000200000000000000000000000000000000000000000000000000000000000000000000008000000000000000000400000000000000000000000000000000000008200000000000010000000000000040000000010000000000000000000000020000000080000000000000000000000000000000000000000000000008000000000100000000000080000000040400100000440000000000000000002000000000000000000000000000000080000010000000002000000000000040000000000000000000000002000000000000000000000000000000020",
      "type": "0x2",
      "transactionHash": "0xfea102f48a5ddb311b9342b2816bbd915c1c8219d959c050c080ae6ed0751728",
      "transactionIndex": "0x62",
      "blockHash": "0x9834a415441348576748200fc315fa5e15bf7e471c321e4da874af9984d7bff4",
      "blockNumber": "0x66bfd2",
      "gasUsed": "0x3dbe5",
      "effectiveGasPrice": "0x4741f07aa",
      "from": "0x8888111f8d7b999009a88224ce5acfc8fa500ddc",
      "to": "0x290e31032c33331d724298544663db502c8cc77d",
      "contractAddress": null
    }
  ],
  "libraries": [],
  "pending": [],
  "returns": {},
  "timestamp": 1726930445,
  "chain": 11155111,
  "commit": "257d58a"
}