{
  "transactions": [
    {
      "hash": "0x7404e66db4572219bbabcbcca86389eed82000a4eafe239a606e2ab1ce9e8c2f",
      "transactionType": "CALL",
      "contractName": null,
      "contractAddress": "0x7b79995e5f793a07bc00c21412e50ecae098e7f9",
      "function": "deposit()",
      "arguments": [],
      "transaction": {
        "from": "0x8888111f8d7b999009a88224ce5acfc8fa500ddc",
        "to": "0x7b79995e5f793a07bc00c21412e50ecae098e7f9",
        "gas": "0xf24e",
        "value": "0x527bb933277d",
        "input": "0xd0e30db0",
        "nonce": "0x13",
        "chainId": "0xaa36a7"
      },
      "additionalContracts": [],
      "isFixedGasLimit": false
    },
    {
      "hash": "0xea68e55069a807ac2ac2e98bb4b115c18bcfb157c7910783f4309b31c1304a7f",
      "transactionType": "CALL",
      "contractName": null,
      "contractAddress": "0x7b79995e5f793a07bc00c21412e50ecae098e7f9",
      "function": "approve(address,uint256)",
      "arguments": [
        "0x903A4726c67e5Ea06Edf29CA780c539B5137d170",
        "90691341592445"
      ],
      "transaction": {
        "from": "0x8888111f8d7b999009a88224ce5acfc8fa500ddc",
        "to": "0x7b79995e5f793a07bc00c21412e50ecae098e7f9",
        "gas": "0xf85d",
        "value": "0x0",
        "input": "0x095ea7b3000000000000000000000000903a4726c67e5ea06edf29ca780c539b5137d1700000000000000000000000000000000000000000000000000000527bb933277d",
        "nonce": "0x14",
        "chainId": "0xaa36a7"
      },
      "additionalContracts": [],
      "isFixedGasLimit": false
    },
    {
      "hash": "0x638957c93ca81a755aa4708bba94e99117b49113b168ffb72c050e76080e2eab",
      "transactionType": "CALL",
      "contractName": null,
      "contractAddress": "0x903a4726c67e5ea06edf29ca780c539b5137d170",
      "function": "bridgeWithLayerZero(uint32,uint128,address,uint256)",
      "arguments": [
        "40245",
        "1000",
        "0x8888111F8D7b999009A88224Ce5aCfC8Fa500ddc",
        "90691341592445"
      ],
      "transaction": {
        "from": "0x8888111f8d7b999009a88224ce5acfc8fa500ddc",
        "to": "0x903a4726c67e5ea06edf29ca780c539b5137d170",
        "gas": "0x5643e",
        "value": "0x0",
        "input": "0xe0e03ef10000000000000000000000000000000000000000000000000000000000009d3500000000000000000000000000000000000000000000000000000000000003e80000000000000000000000008888111f8d7b999009a88224ce5acfc8fa500ddc0000000000000000000000000000000000000000000000000000527bb933277d",
        "nonce": "0x15",
        "chainId": "0xaa36a7"
      },
      "additionalContracts": [],
      "isFixedGasLimit": false
    }
  ],
  "receipts": [
    {
      "status": "0x1",
      "cumulativeGasUsed": "0xe4672b",
      "logs": [
        {
          "address": "0x7b79995e5f793a07bc00c21412e50ecae098e7f9",
          "topics": [
            "0xe1fffcc4923d04b559f4d29a8bfc6cda04eb5b0d3c460751c2402c5c5cc9109c",
            "0x0000000000000000000000008888111f8d7b999009a88224ce5acfc8fa500ddc"
          ],
          "data": "0x0000000000000000000000000000000000000000000000000000527bb933277d",
          "blockHash": "0x46dad47700de47bc1c319b58be17e189820a9b3c263bf3697c9f62f189655f57",
          "blockNumber": "0x66b84f",
          "transactionHash": "0x7404e66db4572219bbabcbcca86389eed82000a4eafe239a606e2ab1ce9e8c2f",
          "transactionIndex": "0x43",
          "logIndex": "0x74",
          "removed": false
        }
      ],
      "logsBloom": "0x00000000000000000000000000000000000000000000000000000004000000000000000000000000000000000000000000000000000000000000000000000000000000000000000000000000000000000000000000000000000000008000000000000000000000000000000000000010000000000000000000000000000000000000000000000000000000000000000000000001000000000000000000000000000000000000000000000000000000080000000040000100000000000000000000000002000000000000000000000000000000000000000000000000000000000000000000000000000000000000000000000000000000400000000000000000",
      "type": "0x2",
      "transactionHash": "0x7404e66db4572219bbabcbcca86389eed82000a4eafe239a606e2ab1ce9e8c2f",
      "transactionIndex": "0x43",
      "blockHash": "0x46dad47700de47bc1c319b58be17e189820a9b3c263bf3697c9f62f189655f57",
      "blockNumber": "0x66b84f",
      "gasUsed": "0xaf6e",
      "effectiveGasPrice": "0x3d79e166a",
      "from": "0x8888111f8d7b999009a88224ce5acfc8fa500ddc",
      "to": "0x7b79995e5f793a07bc00c21412e50ecae098e7f9",
      "contractAddress": null
    },
    {
      "status": "0x1",
      "cumulativeGasUsed": "0xe51afb",
      "logs": [
        {
          "address": "0x7b79995e5f793a07bc00c21412e50ecae098e7f9",
          "topics": [
            "0x8c5be1e5ebec7d5bd14f71427d1e84f3dd0314c0f7b2291e5b200ac8c7c3b925",
            "0x0000000000000000000000008888111f8d7b999009a88224ce5acfc8fa500ddc",
            "0x000000000000000000000000903a4726c67e5ea06edf29ca780c539b5137d170"
          ],
          "data": "0x0000000000000000000000000000000000000000000000000000527bb933277d",
          "blockHash": "0x46dad47700de47bc1c319b58be17e189820a9b3c263bf3697c9f62f189655f57",
          "blockNumber": "0x66b84f",
          "transactionHash": "0xea68e55069a807ac2ac2e98bb4b115c18bcfb157c7910783f4309b31c1304a7f",
          "transactionIndex": "0x44",
          "logIndex": "0x75",
          "removed": false
        }
      ],
      "logsBloom": "0x00000000000000000000000000000000000000000000000000000004000000000000000000000000000000000000000000000000000000000000000000200000000000000000000000000000000000000000000000000000000000000000000000000000000000000000000000000010002000000000000000000000008000000000000000000000000000000000000000000000000000000000000000000000020000000000000000000000000000080000000840000100000000000000000000000002000000000000000000000000000000000000000000000000000000000010000000000000000000000000000000000000000000000000000000000000",
      "type": "0x2",
      "transactionHash": "0xea68e55069a807ac2ac2e98bb4b115c18bcfb157c7910783f4309b31c1304a7f",
      "transactionIndex": "0x44",
      "blockHash": "0x46dad47700de47bc1c319b58be17e189820a9b3c263bf3697c9f62f189655f57",
      "blockNumber": "0x66b84f",
      "gasUsed": "0xb3d0",
      "effectiveGasPrice": "0x3d79e166a",
      "from": "0x8888111f8d7b999009a88224ce5acfc8fa500ddc",
      "to": "0x7b79995e5f793a07bc00c21412e50ecae098e7f9",
      "contractAddress": null
    },
    {
      "status": "0x1",
      "cumulativeGasUsed": "0xe8cabd",
      "logs": [
        {
          "address": "0x7b79995e5f793a07bc00c21412e50ecae098e7f9",
          "topics": [
            "0xddf252ad1be2c89b69c2b068fc378daa952ba7f163c4a11628f55a4df523b3ef",
            "0x0000000000000000000000008888111f8d7b999009a88224ce5acfc8fa500ddc",
            "0x000000000000000000000000903a4726c67e5ea06edf29ca780c539b5137d170"
          ],
          "data": "0x0000000000000000000000000000000000000000000000000000527bb933277d",
          "blockHash": "0x46dad47700de47bc1c319b58be17e189820a9b3c263bf3697c9f62f189655f57",
          "blockNumber": "0x66b84f",
          "transactionHash": "0x638957c93ca81a755aa4708bba94e99117b49113b168ffb72c050e76080e2eab",
          "transactionIndex": "0x45",
          "logIndex": "0x76",
          "removed": false
        },
        {
          "address": "0x903a4726c67e5ea06edf29ca780c539b5137d170",
          "topics": [
            "0xdd970dd9b5bfe707922155b058a407655cb18288b807e2216442bca8ad83d6b5"
          ],
          "data": "0x000000000000000000000000000000000000000000000000000000000000004000000000000000000000000000000000000000000000000000000000000008c000000000000000000000000000000000000000000000000000000000000000077265636569766500000000000000000000000000000000000000000000000000",
          "blockHash": "0x46dad47700de47bc1c319b58be17e189820a9b3c263bf3697c9f62f189655f57",
          "blockNumber": "0x66b84f",
          "transactionHash": "0x638957c93ca81a755aa4708bba94e99117b49113b168ffb72c050e76080e2eab",
          "transactionIndex": "0x45",
          "logIndex": "0x77",
          "removed": false
        },
        {
          "address": "0x7b79995e5f793a07bc00c21412e50ecae098e7f9",
          "topics": [
            "0x7fcf532c15f0a6db0bd6d0e038bea71d30d808c7d98cb3bf7268a95bf5081b65",
            "0x000000000000000000000000903a4726c67e5ea06edf29ca780c539b5137d170"
          ],
          "data": "0x0000000000000000000000000000000000000000000000000000527bb933277d",
          "blockHash": "0x46dad47700de47bc1c319b58be17e189820a9b3c263bf3697c9f62f189655f57",
          "blockNumber": "0x66b84f",
          "transactionHash": "0x638957c93ca81a755aa4708bba94e99117b49113b168ffb72c050e76080e2eab",
          "transactionIndex": "0x45",
          "logIndex": "0x78",
          "removed": false
        },
        {
          "address": "0xcc1ae8cf5d3904cef3360a9532b477529b177cce",
          "topics": [
            "0x61ed099e74a97a1d7f8bb0952a88ca8b7b8ebd00c126ea04671f92a81213318a"
          ],
          "data": "0x000000000000000000000000718b92b5cb0a5552039b593faf724d182a881eda00000000000000000000000000000000000000000000000000004e7b946183ca",
          "blockHash": "0x46dad47700de47bc1c319b58be17e189820a9b3c263bf3697c9f62f189655f57",
          "blockNumber": "0x66b84f",
          "transactionHash": "0x638957c93ca81a755aa4708bba94e99117b49113b168ffb72c050e76080e2eab",
          "transactionIndex": "0x45",
          "logIndex": "0x79",
          "removed": false
        },
        {
          "address": "0xcc1ae8cf5d3904cef3360a9532b477529b177cce",
          "topics": [
            "0x07ea52d82345d6e838192107d8fd7123d9c2ec8e916cd0aad13fd2b60db24644"
          ],
          "data": "0x000000000000000000000000000000000000000000000000000000000000006000000000000000000000000000000000000000000000000000000000000000a000000000000000000000000000000000000000000000000000000000000000c000000000000000000000000000000000000000000000000000000000000000010000000000000000000000008eebf8b423b73bfca51a1db4b7354aa0bfca9193000000000000000000000000000000000000000000000000000000000000000000000000000000000000000000000000000000000000000000000000000000010000000000000000000000000000000000000000000000000000040024d1a3b3",
          "blockHash": "0x46dad47700de47bc1c319b58be17e189820a9b3c263bf3697c9f62f189655f57",
          "blockNumber": "0x66b84f",
          "transactionHash": "0x638957c93ca81a755aa4708bba94e99117b49113b168ffb72c050e76080e2eab",
          "transactionIndex": "0x45",
          "logIndex": "0x7a",
          "removed": false
        },
        {
          "address": "0x6edce65403992e310a62460808c4b910d972f10f",
          "topics": [
            "0x1ab700d4ced0c005b164c0f789fd09fcbb0156d4c2041b8a3bfbcd961cd1567f"
          ],
          "data": "0x00000000000000000000000000000000000000000000000000000000000000600000000000000000000000000000000000000000000000000000000000000100000000000000000000000000cc1ae8cf5d3904cef3360a9532b477529b177cce000000000000000000000000000000000000000000000000000000000000007101000000000000000400009ce1000000000000000000000000cf06f7bc9d3cd7b068f059ab4c19f237f3a40f8c00009d35000000000000000000000000cf06f7bc9d3cd7b068f059ab4c19f237f3a40f8cd555326067b305bb3f6e67f5961a3d3cd254d2361b2bda146e98d538f18e6cf4000000000000000000000000000000000000000000000000000000000000000000000000000000000000000000004a00030100110100000000000000000000000000030d4001003102000000000000000000000000000003e80000000000000000000000008888111f8d7b999009a88224ce5acfc8fa500ddc00000000000000000000000000000000000000000000",
          "blockHash": "0x46dad47700de47bc1c319b58be17e189820a9b3c263bf3697c9f62f189655f57",
          "blockNumber": "0x66b84f",
          "transactionHash": "0x638957c93ca81a755aa4708bba94e99117b49113b168ffb72c050e76080e2eab",
          "transactionIndex": "0x45",
          "logIndex": "0x7b",
          "removed": false
        }
      ],
      "logsBloom": "0x00000000000000000000000000000000000000000000000000000004000100000000000000000000200000000000100000000040000000000000000000800000000000000000000000000008000000000000000000400000000000000000000000002000000000008200000000000010002000000000040000000010008000000000000000000020000000280000000000000000000000000000000000000000000000008000000000100000000000080000000840400100000440000000000000000002000000000000000000000000000000080000000040000002000000000000040000000000000000000000002000000000000000000000000000000020",
      "type": "0x2",
      "transactionHash": "0x638957c93ca81a755aa4708bba94e99117b49113b168ffb72c050e76080e2eab",
      "transactionIndex": "0x45",
      "blockHash": "0x46dad47700de47bc1c319b58be17e189820a9b3c263bf3697c9f62f189655f57",
      "blockNumber": "0x66b84f",
      "gasUsed": "0x3afc2",
      "effectiveGasPrice": "0x3d79e166a",
      "from": "0x8888111f8d7b999009a88224ce5acfc8fa500ddc",
      "to": "0x903a4726c67e5ea06edf29ca780c539b5137d170",
      "contractAddress": null
    }
  ],
  "libraries": [],
  "pending": [],
  "returns": {},
  "timestamp": 1726902916,
  "chain": 11155111,
  "commit": "feaa308"
}