{
  "transactions": [
    {
      "hash": null,
      "transactionType": "CALL",
      "contractName": "WETH",
      "contractAddress": "0x7b79995e5f793a07bc00c21412e50ecae098e7f9",
      "function": "deposit()",
      "arguments": [],
      "transaction": {
        "from": "0x8888111f8d7b999009a88224ce5acfc8fa500ddc",
        "to": "0x7b79995e5f793a07bc00c21412e50ecae098e7f9",
        "gas": "0x9edf",
        "value": "0xa69bf8070a3a",
        "input": "0xd0e30db0",
        "nonce": "0x35",
        "chainId": "0xaa36a7"
      },
      "additionalContracts": [],
      "isFixedGasLimit": false
    },
    {
      "hash": null,
      "transactionType": "CALL",
      "contractName": "WETH",
      "contractAddress": "0x7b79995e5f793a07bc00c21412e50ecae098e7f9",
      "function": "approve(address,uint256)",
      "arguments": [
        "0x290e31032c33331D724298544663dB502C8cC77D",
        "183188811352634"
      ],
      "transaction": {
        "from": "0x8888111f8d7b999009a88224ce5acfc8fa500ddc",
        "to": "0x7b79995e5f793a07bc00c21412e50ecae098e7f9",
        "gas": "0xf85d",
        "value": "0x0",
        "input": "0x095ea7b3000000000000000000000000290e31032c33331d724298544663db502c8cc77d0000000000000000000000000000000000000000000000000000a69bf8070a3a",
        "nonce": "0x36",
        "chainId": "0xaa36a7"
      },
      "additionalContracts": [],
      "isFixedGasLimit": false
    },
    {
      "hash": null,
      "transactionType": "CALL",
      "contractName": null,
      "contractAddress": "0x290e31032c33331d724298544663db502c8cc77d",
      "function": "bridgeWithLayerZero((uint32,uint128,uint256)[],address,uint256)",
      "arguments": [
        "[(40245, 1000, 183188811352634)]",
        "0x8888111F8D7b999009A88224Ce5aCfC8Fa500ddc",
        "183188811352634"
      ],
      "transaction": {
        "from": "0x8888111f8d7b999009a88224ce5acfc8fa500ddc",
        "to": "0x290e31032c33331d724298544663db502c8cc77d",
        "gas": "0x55487",
        "value": "0x0",
        "input": "0xcccabd8100000000000000000000000000000000000000000000000000000000000000600000000000000000000000008888111f8d7b999009a88224ce5acfc8fa500ddc0000000000000000000000000000000000000000000000000000a69bf8070a3a00000000000000000000000000000000000000000000000000000000000000010000000000000000000000000000000000000000000000000000000000009d3500000000000000000000000000000000000000000000000000000000000003e80000000000000000000000000000000000000000000000000000a69bf8070a3a",
        "nonce": "0x37",
        "chainId": "0xaa36a7"
      },
      "additionalContracts": [],
      "isFixedGasLimit": false
    }
  ],
  "receipts": [],
  "libraries": [],
  "pending": [],
  "returns": {},
  "timestamp": 1726930618,
  "chain": 11155111,
  "commit": "257d58a"
}