{
  "transactions": [
    {
      "hash": "0x3552ce1340fa4b54769ae8d9c9b35585f9c87e3ac14f389f40b42e29cb1e21dd",
      "transactionType": "CREATE",
      "contractName": "BridgeSelectorV1",
      "contractAddress": "0x903a4726c67e5ea06edf29ca780c539b5137d170",
      "function": null,
      "arguments": null,
      "transaction": {
        "from": "0x8888111f8d7b999009a88224ce5acfc8fa500ddc",
        "gas": "0x7d925",
        "value": "0x0",
        "input": "0x6080604052348015600f57600080fd5b506106328061001f6000396000f3fe60806040526004361061004e5760003560e01c80631f9968f0146100b557806333f97b59146100e85780633fc8cef314610120578063485cc95514610140578063e0e03ef11461016257600080fd5b366100b0577fdd970dd9b5bfe707922155b058a407655cb18288b807e2216442bca8ad83d6b55a6040516100a691906040808252600790820152667265636569766560c81b6060820152602081019190915260800190565b60405180910390a1005b600080fd5b3480156100c157600080fd5b506100d56100d03660046104c9565b610182565b6040519081526020015b60405180910390f35b3480156100f457600080fd5b50600154610108906001600160a01b031681565b6040516001600160a01b0390911681526020016100df565b34801561012c57600080fd5b50600054610108906001600160a01b031681565b34801561014c57600080fd5b5061016061015b36600461050c565b610200565b005b34801561016e57600080fd5b5061016061017d36600461053f565b610338565b60015460405163354d114960e21b81526000916001600160a01b03169063d5344524906101b79087908790879060040161058a565b602060405180830381865afa1580156101d4573d6000803e3d6000fd5b505050506040513d601f19601f820116820180604052508101906101f891906105ba565b949350505050565b7ff0c57e16840df040f15088dc2f81fe391c3923bec73e23a9662efc9c229c6a008054600160401b810460ff16159067ffffffffffffffff166000811580156102465750825b905060008267ffffffffffffffff1660011480156102635750303b155b905081158015610271575080155b1561028f5760405163f92ee8a960e01b815260040160405180910390fd5b845467ffffffffffffffff1916600117855583156102b957845460ff60401b1916600160401b1785555b600180546001600160a01b03808a166001600160a01b0319928316179092556000805492891692909116919091179055831561032f57845460ff60401b19168555604051600181527fc7f505b2f371ae2175ee4913f4499e1f2633a7b5936321eed1cdaeb6115181d29060200160405180910390a15b50505050505050565b6000546040516323b872dd60e01b81526001600160a01b03848116600483015230602483015260448201849052909116906323b872dd906064016020604051808303816000875af1158015610391573d6000803e3d6000fd5b505050506040513d601f19601f820116820180604052508101906103b591906105d3565b50600054604051632e1a7d4d60e01b8152600481018390526001600160a01b0390911690632e1a7d4d90602401600060405180830381600087803b1580156103fc57600080fd5b505af1158015610410573d6000803e3d6000fd5b5050600154604051634c2e249760e11b81526001600160a01b03909116925063985c492e9150839061044a9088908890889060040161058a565b6000604051808303818588803b15801561046357600080fd5b505af1158015610477573d6000803e3d6000fd5b505050505050505050565b803563ffffffff8116811461049657600080fd5b919050565b80356001600160801b038116811461049657600080fd5b80356001600160a01b038116811461049657600080fd5b6000806000606084860312156104de57600080fd5b6104e784610482565b92506104f56020850161049b565b9150610503604085016104b2565b90509250925092565b6000806040838503121561051f57600080fd5b610528836104b2565b9150610536602084016104b2565b90509250929050565b6000806000806080858703121561055557600080fd5b61055e85610482565b935061056c6020860161049b565b925061057a604086016104b2565b9396929550929360600135925050565b63ffffffff9390931683526001600160801b039190911660208301526001600160a01b0316604082015260600190565b6000602082840312156105cc57600080fd5b5051919050565b6000602082840312156105e557600080fd5b815180151581146105f557600080fd5b939250505056fea26469706673582212208d1a5c51795d86b1342677a0d6532e6fb357365d0b27f582779d706ed4418b0264736f6c634300081b0033",
        "nonce": "0xa",
        "chainId": "0xaa36a7"
      },
      "additionalContracts": [],
      "isFixedGasLimit": false
    },
    {
      "hash": "0x49f1d81cd878a954a756b802bc20b8951f66e0741fc7f576940f936ddf7dea0e",
      "transactionType": "CALL",
      "contractName": "BridgeSelectorV1",
      "contractAddress": "0x903a4726c67e5ea06edf29ca780c539b5137d170",
      "function": "initialize(address,address)",
      "arguments": [
        "0xCF06f7BC9D3Cd7b068F059AB4c19f237F3A40F8C",
        "0x7b79995e5f793A07Bc00c21412e50Ecae098E7f9"
      ],
      "transaction": {
        "from": "0x8888111f8d7b999009a88224ce5acfc8fa500ddc",
        "to": "0x903a4726c67e5ea06edf29ca780c539b5137d170",
        "gas": "0x1e845",
        "value": "0x0",
        "input": "0x485cc955000000000000000000000000cf06f7bc9d3cd7b068f059ab4c19f237f3a40f8c0000000000000000000000007b79995e5f793a07bc00c21412e50ecae098e7f9",
        "nonce": "0xb",
        "chainId": "0xaa36a7"
      },
      "additionalContracts": [],
      "isFixedGasLimit": false
    }
  ],
  "receipts": [
    {
      "status": "0x1",
      "cumulativeGasUsed": "0x1637434",
      "logs": [],
      "logsBloom": "0x00000000000000000000000000000000000000000000000000000000000000000000000000000000000000000000000000000000000000000000000000000000000000000000000000000000000000000000000000000000000000000000000000000000000000000000000000000000000000000000000000000000000000000000000000000000000000000000000000000000000000000000000000000000000000000000000000000000000000000000000000000000000000000000000000000000000000000000000000000000000000000000000000000000000000000000000000000000000000000000000000000000000000000000000000000000",
      "type": "0x2",
      "transactionHash": "0x3552ce1340fa4b54769ae8d9c9b35585f9c87e3ac14f389f40b42e29cb1e21dd",
      "transactionIndex": "0xa2",
      "blockHash": "0xe7d8670f46868dfc2ebc79034799a36bf96a552d469f47715acef0f0e8d80df2",
      "blockNumber": "0x66b627",
      "gasUsed": "0x609e5",
      "effectiveGasPrice": "0x355b7acd4",
      "from": "0x8888111f8d7b999009a88224ce5acfc8fa500ddc",
      "to": null,
      "contractAddress": "0x903a4726c67e5ea06edf29ca780c539b5137d170"
    },
    {
      "status": "0x1",
      "cumulativeGasUsed": "0x164d5b4",
      "logs": [
        {
          "address": "0x903a4726c67e5ea06edf29ca780c539b5137d170",
          "topics": [
            "0xc7f505b2f371ae2175ee4913f4499e1f2633a7b5936321eed1cdaeb6115181d2"
          ],
          "data": "0x0000000000000000000000000000000000000000000000000000000000000001",
          "blockHash": "0xe7d8670f46868dfc2ebc79034799a36bf96a552d469f47715acef0f0e8d80df2",
          "blockNumber": "0x66b627",
          "transactionHash": "0x49f1d81cd878a954a756b802bc20b8951f66e0741fc7f576940f936ddf7dea0e",
          "transactionIndex": "0xa3",
          "logIndex": "0xef",
          "removed": false
        }
      ],
      "logsBloom": "0x00000000000000000000000000000000000000000000000000000000000000000000000000000000000000000000100000000000000000000000000000800000000000000000000000000000000000000000000000000000000000000000000000002000000000000000000000000000000000000000000000000000000000000000000000000000000800000000000000000000000080000000000000000000000000000000000000000000000000000000000000000000000000000000000000000000000000000000000000000000000000000004000000000000000000000000000000000000000000000000000000000000000000000000000000000000",
      "type": "0x2",
      "transactionHash": "0x49f1d81cd878a954a756b802bc20b8951f66e0741fc7f576940f936ddf7dea0e",
      "transactionIndex": "0xa3",
      "blockHash": "0xe7d8670f46868dfc2ebc79034799a36bf96a552d469f47715acef0f0e8d80df2",
      "blockNumber": "0x66b627",
      "gasUsed": "0x16180",
      "effectiveGasPrice": "0x355b7acd4",
      "from": "0x8888111f8d7b999009a88224ce5acfc8fa500ddc",
      "to": "0x903a4726c67e5ea06edf29ca780c539b5137d170",
      "contractAddress": null
    }
  ],
  "libraries": [],
  "pending": [],
  "returns": {},
  "timestamp": 1726894898,
  "chain": 11155111,
  "commit": "ebcef3f"
}