{
  "deployments": [
    {
      "transactions": [
        {
          "hash": "0xc11d1bdab17b7e1d9f8d0a76cf3c0e77fd6eb18a1a7ff6c0084017c975ef123f",
          "transactionType": "CALL",
          "contractName": null,
          "contractAddress": "0x11545fe290a922c557274d4b53ef3880175d40d8",
          "function": "setPeer(uint32,bytes32)",
          "arguments": [
            "40245",
            "0x0000000000000000000000004cd5d8ec1e9c3909d14f378f3348f3ab0a04e172"
          ],
          "transaction": {
            "from": "0x8888111f8d7b999009a88224ce5acfc8fa500ddc",
            "to": "0x11545fe290a922c557274d4b53ef3880175d40d8",
            "gas": "0x1102d",
            "value": "0x0",
            "input": "0x3400288b0000000000000000000000000000000000000000000000000000000000009d350000000000000000000000004cd5d8ec1e9c3909d14f378f3348f3ab0a04e172",
            "nonce": "0x20",
            "chainId": "0xaa36a7"
          },
          "additionalContracts": [],
          "isFixedGasLimit": false
        },
        {
          "hash": "0xd42b436cf28901d2d4bddc0e4a30a46f38523455dd367d209f5377efecf141db",
          "transactionType": "CALL",
          "contractName": null,
          "contractAddress": "0x11545fe290a922c557274d4b53ef3880175d40d8",
          "function": "setPeer(uint32,bytes32)",
          "arguments": [
            "40231",
            "0x000000000000000000000000cf06f7bc9d3cd7b068f059ab4c19f237f3a40f8c"
          ],
          "transaction": {
            "from": "0x8888111f8d7b999009a88224ce5acfc8fa500ddc",
            "to": "0x11545fe290a922c557274d4b53ef3880175d40d8",
            "gas": "0x1102d",
            "value": "0x0",
            "input": "0x3400288b0000000000000000000000000000000000000000000000000000000000009d27000000000000000000000000cf06f7bc9d3cd7b068f059ab4c19f237f3a40f8c",
            "nonce": "0x21",
            "chainId": "0xaa36a7"
          },
          "additionalContracts": [],
          "isFixedGasLimit": false
        },
        {
          "hash": "0x6911fbc0d4c9330f08e0a1e725f8577168ada2ac05e765863865ceff1890eaeb",
          "transactionType": "CALL",
          "contractName": null,
          "contractAddress": "0x11545fe290a922c557274d4b53ef3880175d40d8",
          "function": "setPeer(uint32,bytes32)",
          "arguments": [
            "40267",
            "0x000000000000000000000000cf06f7bc9d3cd7b068f059ab4c19f237f3a40f8c"
          ],
          "transaction": {
            "from": "0x8888111f8d7b999009a88224ce5acfc8fa500ddc",
            "to": "0x11545fe290a922c557274d4b53ef3880175d40d8",
            "gas": "0x1102d",
            "value": "0x0",
            "input": "0x3400288b0000000000000000000000000000000000000000000000000000000000009d4b000000000000000000000000cf06f7bc9d3cd7b068f059ab4c19f237f3a40f8c",
            "nonce": "0x22",
            "chainId": "0xaa36a7"
          },
          "additionalContracts": [],
          "isFixedGasLimit": false
        },
        {
          "hash": "0x97f1c86f9b09594c9d76d7fcdff2fcaea3e894b509756f3ac6d172da857090a7",
          "transactionType": "CALL",
          "contractName": null,
          "contractAddress": "0x11545fe290a922c557274d4b53ef3880175d40d8",
          "function": "setPeer(uint32,bytes32)",
          "arguments": [
            "40232",
            "0x000000000000000000000000cf06f7bc9d3cd7b068f059ab4c19f237f3a40f8c"
          ],
          "transaction": {
            "from": "0x8888111f8d7b999009a88224ce5acfc8fa500ddc",
            "to": "0x11545fe290a922c557274d4b53ef3880175d40d8",
            "gas": "0x1102d",
            "value": "0x0",
            "input": "0x3400288b0000000000000000000000000000000000000000000000000000000000009d28000000000000000000000000cf06f7bc9d3cd7b068f059ab4c19f237f3a40f8c",
            "nonce": "0x23",
            "chainId": "0xaa36a7"
          },
          "additionalContracts": [],
          "isFixedGasLimit": false
        },
        {
          "hash": "0x85b109a806e827e3cb1dea1938a7a1e4b1638657328bbac6a174e95c42178360",
          "transactionType": "CALL",
          "contractName": null,
          "contractAddress": "0x11545fe290a922c557274d4b53ef3880175d40d8",
          "function": "setPeer(uint32,bytes32)",
          "arguments": [
            "40322",
            "0x000000000000000000000000cf06f7bc9d3cd7b068f059ab4c19f237f3a40f8c"
          ],
          "transaction": {
            "from": "0x8888111f8d7b999009a88224ce5acfc8fa500ddc",
            "to": "0x11545fe290a922c557274d4b53ef3880175d40d8",
            "gas": "0x1102d",
            "value": "0x0",
            "input": "0x3400288b0000000000000000000000000000000000000000000000000000000000009d82000000000000000000000000cf06f7bc9d3cd7b068f059ab4c19f237f3a40f8c",
            "nonce": "0x24",
            "chainId": "0xaa36a7"
          },
          "additionalContracts": [],
          "isFixedGasLimit": false
        }
      ],
      "receipts": [
        {
          "status": "0x1",
          "cumulativeGasUsed": "0x6ae50d",
          "logs": [
            {
              "address": "0x11545fe290a922c557274d4b53ef3880175d40d8",
              "topics": [
                "0x238399d427b947898edb290f5ff0f9109849b1c3ba196a42e35f00c50a54b98b"
              ],
              "data": "0x0000000000000000000000000000000000000000000000000000000000009d350000000000000000000000004cd5d8ec1e9c3909d14f378f3348f3ab0a04e172",
              "blockHash": "0x22bab5f736c8d1cc878b35aac1cbebb440338d208b46941234d919b2b2b8b6f2",
              "blockNumber": "0x66beba",
              "transactionHash": "0xc11d1bdab17b7e1d9f8d0a76cf3c0e77fd6eb18a1a7ff6c0084017c975ef123f",
              "transactionIndex": "0x33",
              "logIndex": "0x41",
              "removed": false
            }
          ],
          "logsBloom": "0x00000000000000000000000000000000000000000000000000000000000000000000000000000000000000000000000000000000000000000900000000000000000000000000000000000000000000000000000000000000000000000000000000000000000000000000000000000000000000000000000000000000000000000000000000000000800000000000000000000000000000000000000000000010000000000000000000000000000000000000000000000000000002000000000000000000000000000000000000000000000000000000000000040000000000000000000000000000000000000000000000000000000000000000000000000000",
          "type": "0x2",
          "transactionHash": "0xc11d1bdab17b7e1d9f8d0a76cf3c0e77fd6eb18a1a7ff6c0084017c975ef123f",
          "transactionIndex": "0x33",
          "blockHash": "0x22bab5f736c8d1cc878b35aac1cbebb440338d208b46941234d919b2b2b8b6f2",
          "blockNumber": "0x66beba",
          "gasUsed": "0xba1b",
          "effectiveGasPrice": "0x547541f5d",
          "from": "0x8888111f8d7b999009a88224ce5acfc8fa500ddc",
          "to": "0x11545fe290a922c557274d4b53ef3880175d40d8",
          "contractAddress": null
        },
        {
          "status": "0x1",
          "cumulativeGasUsed": "0x8479b0",
          "logs": [
            {
              "address": "0x11545fe290a922c557274d4b53ef3880175d40d8",
              "topics": [
                "0x238399d427b947898edb290f5ff0f9109849b1c3ba196a42e35f00c50a54b98b"
              ],
              "data": "0x0000000000000000000000000000000000000000000000000000000000009d4b000000000000000000000000cf06f7bc9d3cd7b068f059ab4c19f237f3a40f8c",
              "blockHash": "0x0530c962ac8f9b522ddf6adaa60c2b5ad2e263e820176db2afa6a96cafbc5ca1",
              "blockNumber": "0x66bebc",
              "transactionHash": "0x6911fbc0d4c9330f08e0a1e725f8577168ada2ac05e765863865ceff1890eaeb",
              "transactionIndex": "0x3b",
              "logIndex": "0x3c",
              "removed": false
            }
          ],
          "logsBloom": "0x00000000000000000000000000000000000000000000000000000000000000000000000000000000000000000000000000000000000000000900000000000000000000000000000000000000000000000000000000000000000000000000000000000000000000000000000000000000000000000000000000000000000000000000000000000000800000000000000000000000000000000000000000000010000000000000000000000000000000000000000000000000000002000000000000000000000000000000000000000000000000000000000000040000000000000000000000000000000000000000000000000000000000000000000000000000",
          "type": "0x2",
          "transactionHash": "0x6911fbc0d4c9330f08e0a1e725f8577168ada2ac05e765863865ceff1890eaeb",
          "transactionIndex": "0x3b",
          "blockHash": "0x0530c962ac8f9b522ddf6adaa60c2b5ad2e263e820176db2afa6a96cafbc5ca1",
          "blockNumber": "0x66bebc",
          "gasUsed": "0xba1b",
          "effectiveGasPrice": "0x50becd77e",
          "from": "0x8888111f8d7b999009a88224ce5acfc8fa500ddc",
          "to": "0x11545fe290a922c557274d4b53ef3880175d40d8",
          "contractAddress": null
        },
        {
          "status": "0x1",
          "cumulativeGasUsed": "0x8533cb",
          "logs": [
            {
              "address": "0x11545fe290a922c557274d4b53ef3880175d40d8",
              "topics": [
                "0x238399d427b947898edb290f5ff0f9109849b1c3ba196a42e35f00c50a54b98b"
              ],
              "data": "0x0000000000000000000000000000000000000000000000000000000000009d28000000000000000000000000cf06f7bc9d3cd7b068f059ab4c19f237f3a40f8c",
              "blockHash": "0x0530c962ac8f9b522ddf6adaa60c2b5ad2e263e820176db2afa6a96cafbc5ca1",
              "blockNumber": "0x66bebc",
              "transactionHash": "0x97f1c86f9b09594c9d76d7fcdff2fcaea3e894b509756f3ac6d172da857090a7",
              "transactionIndex": "0x3c",
              "logIndex": "0x3d",
              "removed": false
            }
          ],
          "logsBloom": "0x00000000000000000000000000000000000000000000000000000000000000000000000000000000000000000000000000000000000000000900000000000000000000000000000000000000000000000000000000000000000000000000000000000000000000000000000000000000000000000000000000000000000000000000000000000000800000000000000000000000000000000000000000000010000000000000000000000000000000000000000000000000000002000000000000000000000000000000000000000000000000000000000000040000000000000000000000000000000000000000000000000000000000000000000000000000",
          "type": "0x2",
          "transactionHash": "0x97f1c86f9b09594c9d76d7fcdff2fcaea3e894b509756f3ac6d172da857090a7",
          "transactionIndex": "0x3c",
          "blockHash": "0x0530c962ac8f9b522ddf6adaa60c2b5ad2e263e820176db2afa6a96cafbc5ca1",
          "blockNumber": "0x66bebc",
          "gasUsed": "0xba1b",
          "effectiveGasPrice": "0x50becd77e",
          "from": "0x8888111f8d7b999009a88224ce5acfc8fa500ddc",
          "to": "0x11545fe290a922c557274d4b53ef3880175d40d8",
          "contractAddress": null
        },
        {
          "status": "0x1",
          "cumulativeGasUsed": "0x85ede6",
          "logs": [
            {
              "address": "0x11545fe290a922c557274d4b53ef3880175d40d8",
              "topics": [
                "0x238399d427b947898edb290f5ff0f9109849b1c3ba196a42e35f00c50a54b98b"
              ],
              "data": "0x0000000000000000000000000000000000000000000000000000000000009d82000000000000000000000000cf06f7bc9d3cd7b068f059ab4c19f237f3a40f8c",
              "blockHash": "0x0530c962ac8f9b522ddf6adaa60c2b5ad2e263e820176db2afa6a96cafbc5ca1",
              "blockNumber": "0x66bebc",
              "transactionHash": "0x85b109a806e827e3cb1dea1938a7a1e4b1638657328bbac6a174e95c42178360",
              "transactionIndex": "0x3d",
              "logIndex": "0x3e",
              "removed": false
            }
          ],
          "logsBloom": "0x00000000000000000000000000000000000000000000000000000000000000000000000000000000000000000000000000000000000000000900000000000000000000000000000000000000000000000000000000000000000000000000000000000000000000000000000000000000000000000000000000000000000000000000000000000000800000000000000000000000000000000000000000000010000000000000000000000000000000000000000000000000000002000000000000000000000000000000000000000000000000000000000000040000000000000000000000000000000000000000000000000000000000000000000000000000",
          "type": "0x2",
          "transactionHash": "0x85b109a806e827e3cb1dea1938a7a1e4b1638657328bbac6a174e95c42178360",
          "transactionIndex": "0x3d",
          "blockHash": "0x0530c962ac8f9b522ddf6adaa60c2b5ad2e263e820176db2afa6a96cafbc5ca1",
          "blockNumber": "0x66bebc",
          "gasUsed": "0xba1b",
          "effectiveGasPrice": "0x50becd77e",
          "from": "0x8888111f8d7b999009a88224ce5acfc8fa500ddc",
          "to": "0x11545fe290a922c557274d4b53ef3880175d40d8",
          "contractAddress": null
        }
      ],
      "libraries": [],
      "pending": [
        "0xd42b436cf28901d2d4bddc0e4a30a46f38523455dd367d209f5377efecf141db"
      ],
      "returns": {},
      "timestamp": 1726926483,
      "chain": 11155111,
      "commit": "57dd6ef"
    },
    {
      "transactions": [
        {
          "hash": null,
          "transactionType": "CALL",
          "contractName": null,
          "contractAddress": "0x4cd5d8ec1e9c3909d14f378f3348f3ab0a04e172",
          "function": "setPeer(uint32,bytes32)",
          "arguments": [
            "40161",
            "0x00000000000000000000000011545fe290a922c557274d4b53ef3880175d40d8"
          ],
          "transaction": {
            "from": "0x8888111f8d7b999009a88224ce5acfc8fa500ddc",
            "to": "0x4cd5d8ec1e9c3909d14f378f3348f3ab0a04e172",
            "gas": "0x1102d",
            "value": "0x0",
            "input": "0x3400288b0000000000000000000000000000000000000000000000000000000000009ce100000000000000000000000011545fe290a922c557274d4b53ef3880175d40d8",
            "nonce": "0x6",
            "chainId": "0x14a34"
          },
          "additionalContracts": [],
          "isFixedGasLimit": false
        },
        {
          "hash": null,
          "transactionType": "CALL",
          "contractName": null,
          "contractAddress": "0x4cd5d8ec1e9c3909d14f378f3348f3ab0a04e172",
          "function": "setPeer(uint32,bytes32)",
          "arguments": [
            "40231",
            "0x000000000000000000000000cf06f7bc9d3cd7b068f059ab4c19f237f3a40f8c"
          ],
          "transaction": {
            "from": "0x8888111f8d7b999009a88224ce5acfc8fa500ddc",
            "to": "0x4cd5d8ec1e9c3909d14f378f3348f3ab0a04e172",
            "gas": "0x1102d",
            "value": "0x0",
            "input": "0x3400288b0000000000000000000000000000000000000000000000000000000000009d27000000000000000000000000cf06f7bc9d3cd7b068f059ab4c19f237f3a40f8c",
            "nonce": "0x7",
            "chainId": "0x14a34"
          },
          "additionalContracts": [],
          "isFixedGasLimit": false
        },
        {
          "hash": null,
          "transactionType": "CALL",
          "contractName": null,
          "contractAddress": "0x4cd5d8ec1e9c3909d14f378f3348f3ab0a04e172",
          "function": "setPeer(uint32,bytes32)",
          "arguments": [
            "40267",
            "0x000000000000000000000000cf06f7bc9d3cd7b068f059ab4c19f237f3a40f8c"
          ],
          "transaction": {
            "from": "0x8888111f8d7b999009a88224ce5acfc8fa500ddc",
            "to": "0x4cd5d8ec1e9c3909d14f378f3348f3ab0a04e172",
            "gas": "0x1102d",
            "value": "0x0",
            "input": "0x3400288b0000000000000000000000000000000000000000000000000000000000009d4b000000000000000000000000cf06f7bc9d3cd7b068f059ab4c19f237f3a40f8c",
            "nonce": "0x8",
            "chainId": "0x14a34"
          },
          "additionalContracts": [],
          "isFixedGasLimit": false
        },
        {
          "hash": null,
          "transactionType": "CALL",
          "contractName": null,
          "contractAddress": "0x4cd5d8ec1e9c3909d14f378f3348f3ab0a04e172",
          "function": "setPeer(uint32,bytes32)",
          "arguments": [
            "40232",
            "0x000000000000000000000000cf06f7bc9d3cd7b068f059ab4c19f237f3a40f8c"
          ],
          "transaction": {
            "from": "0x8888111f8d7b999009a88224ce5acfc8fa500ddc",
            "to": "0x4cd5d8ec1e9c3909d14f378f3348f3ab0a04e172",
            "gas": "0x1102d",
            "value": "0x0",
            "input": "0x3400288b0000000000000000000000000000000000000000000000000000000000009d28000000000000000000000000cf06f7bc9d3cd7b068f059ab4c19f237f3a40f8c",
            "nonce": "0x9",
            "chainId": "0x14a34"
          },
          "additionalContracts": [],
          "isFixedGasLimit": false
        },
        {
          "hash": null,
          "transactionType": "CALL",
          "contractName": null,
          "contractAddress": "0x4cd5d8ec1e9c3909d14f378f3348f3ab0a04e172",
          "function": "setPeer(uint32,bytes32)",
          "arguments": [
            "40322",
            "0x000000000000000000000000cf06f7bc9d3cd7b068f059ab4c19f237f3a40f8c"
          ],
          "transaction": {
            "from": "0x8888111f8d7b999009a88224ce5acfc8fa500ddc",
            "to": "0x4cd5d8ec1e9c3909d14f378f3348f3ab0a04e172",
            "gas": "0x1102d",
            "value": "0x0",
            "input": "0x3400288b0000000000000000000000000000000000000000000000000000000000009d82000000000000000000000000cf06f7bc9d3cd7b068f059ab4c19f237f3a40f8c",
            "nonce": "0xa",
            "chainId": "0x14a34"
          },
          "additionalContracts": [],
          "isFixedGasLimit": false
        }
      ],
      "receipts": [],
      "libraries": [],
      "pending": [],
      "returns": {},
      "timestamp": 1726926485,
      "chain": 84532,
      "commit": "57dd6ef"
    },
    {
      "transactions": [
        {
          "hash": null,
          "transactionType": "CALL",
          "contractName": null,
          "contractAddress": "0xcf06f7bc9d3cd7b068f059ab4c19f237f3a40f8c",
          "function": "setPeer(uint32,bytes32)",
          "arguments": [
            "40161",
            "0x00000000000000000000000011545fe290a922c557274d4b53ef3880175d40d8"
          ],
          "transaction": {
            "from": "0x8888111f8d7b999009a88224ce5acfc8fa500ddc",
            "to": "0xcf06f7bc9d3cd7b068f059ab4c19f237f3a40f8c",
            "gas": "0x134ec",
            "value": "0x0",
            "input": "0x3400288b0000000000000000000000000000000000000000000000000000000000009ce100000000000000000000000011545fe290a922c557274d4b53ef3880175d40d8",
            "nonce": "0x1",
            "chainId": "0x66eee"
          },
          "additionalContracts": [],
          "isFixedGasLimit": false
        },
        {
          "hash": null,
          "transactionType": "CALL",
          "contractName": null,
          "contractAddress": "0xcf06f7bc9d3cd7b068f059ab4c19f237f3a40f8c",
          "function": "setPeer(uint32,bytes32)",
          "arguments": [
            "40245",
            "0x0000000000000000000000004cd5d8ec1e9c3909d14f378f3348f3ab0a04e172"
          ],
          "transaction": {
            "from": "0x8888111f8d7b999009a88224ce5acfc8fa500ddc",
            "to": "0xcf06f7bc9d3cd7b068f059ab4c19f237f3a40f8c",
            "gas": "0x134ec",
            "value": "0x0",
            "input": "0x3400288b0000000000000000000000000000000000000000000000000000000000009d350000000000000000000000004cd5d8ec1e9c3909d14f378f3348f3ab0a04e172",
            "nonce": "0x2",
            "chainId": "0x66eee"
          },
          "additionalContracts": [],
          "isFixedGasLimit": false
        },
        {
          "hash": null,
          "transactionType": "CALL",
          "contractName": null,
          "contractAddress": "0xcf06f7bc9d3cd7b068f059ab4c19f237f3a40f8c",
          "function": "setPeer(uint32,bytes32)",
          "arguments": [
            "40267",
            "0x000000000000000000000000cf06f7bc9d3cd7b068f059ab4c19f237f3a40f8c"
          ],
          "transaction": {
            "from": "0x8888111f8d7b999009a88224ce5acfc8fa500ddc",
            "to": "0xcf06f7bc9d3cd7b068f059ab4c19f237f3a40f8c",
            "gas": "0x134ec",
            "value": "0x0",
            "input": "0x3400288b0000000000000000000000000000000000000000000000000000000000009d4b000000000000000000000000cf06f7bc9d3cd7b068f059ab4c19f237f3a40f8c",
            "nonce": "0x3",
            "chainId": "0x66eee"
          },
          "additionalContracts": [],
          "isFixedGasLimit": false
        },
        {
          "hash": null,
          "transactionType": "CALL",
          "contractName": null,
          "contractAddress": "0xcf06f7bc9d3cd7b068f059ab4c19f237f3a40f8c",
          "function": "setPeer(uint32,bytes32)",
          "arguments": [
            "40232",
            "0x000000000000000000000000cf06f7bc9d3cd7b068f059ab4c19f237f3a40f8c"
          ],
          "transaction": {
            "from": "0x8888111f8d7b999009a88224ce5acfc8fa500ddc",
            "to": "0xcf06f7bc9d3cd7b068f059ab4c19f237f3a40f8c",
            "gas": "0x134ec",
            "value": "0x0",
            "input": "0x3400288b0000000000000000000000000000000000000000000000000000000000009d28000000000000000000000000cf06f7bc9d3cd7b068f059ab4c19f237f3a40f8c",
            "nonce": "0x4",
            "chainId": "0x66eee"
          },
          "additionalContracts": [],
          "isFixedGasLimit": false
        },
        {
          "hash": null,
          "transactionType": "CALL",
          "contractName": null,
          "contractAddress": "0xcf06f7bc9d3cd7b068f059ab4c19f237f3a40f8c",
          "function": "setPeer(uint32,bytes32)",
          "arguments": [
            "40322",
            "0x000000000000000000000000cf06f7bc9d3cd7b068f059ab4c19f237f3a40f8c"
          ],
          "transaction": {
            "from": "0x8888111f8d7b999009a88224ce5acfc8fa500ddc",
            "to": "0xcf06f7bc9d3cd7b068f059ab4c19f237f3a40f8c",
            "gas": "0x134ec",
            "value": "0x0",
            "input": "0x3400288b0000000000000000000000000000000000000000000000000000000000009d82000000000000000000000000cf06f7bc9d3cd7b068f059ab4c19f237f3a40f8c",
            "nonce": "0x5",
            "chainId": "0x66eee"
          },
          "additionalContracts": [],
          "isFixedGasLimit": false
        }
      ],
      "receipts": [],
      "libraries": [],
      "pending": [],
      "returns": {},
      "timestamp": 1726926487,
      "chain": 421614,
      "commit": "57dd6ef"
    },
    {
      "transactions": [
        {
          "hash": null,
          "transactionType": "CALL",
          "contractName": null,
          "contractAddress": "0xcf06f7bc9d3cd7b068f059ab4c19f237f3a40f8c",
          "function": "setPeer(uint32,bytes32)",
          "arguments": [
            "40161",
            "0x00000000000000000000000011545fe290a922c557274d4b53ef3880175d40d8"
          ],
          "transaction": {
            "from": "0x8888111f8d7b999009a88224ce5acfc8fa500ddc",
            "to": "0xcf06f7bc9d3cd7b068f059ab4c19f237f3a40f8c",
            "gas": "0x1102d",
            "value": "0x0",
            "input": "0x3400288b0000000000000000000000000000000000000000000000000000000000009ce100000000000000000000000011545fe290a922c557274d4b53ef3880175d40d8",
            "nonce": "0x1",
            "chainId": "0x13882"
          },
          "additionalContracts": [],
          "isFixedGasLimit": false
        },
        {
          "hash": null,
          "transactionType": "CALL",
          "contractName": null,
          "contractAddress": "0xcf06f7bc9d3cd7b068f059ab4c19f237f3a40f8c",
          "function": "setPeer(uint32,bytes32)",
          "arguments": [
            "40245",
            "0x0000000000000000000000004cd5d8ec1e9c3909d14f378f3348f3ab0a04e172"
          ],
          "transaction": {
            "from": "0x8888111f8d7b999009a88224ce5acfc8fa500ddc",
            "to": "0xcf06f7bc9d3cd7b068f059ab4c19f237f3a40f8c",
            "gas": "0x1102d",
            "value": "0x0",
            "input": "0x3400288b0000000000000000000000000000000000000000000000000000000000009d350000000000000000000000004cd5d8ec1e9c3909d14f378f3348f3ab0a04e172",
            "nonce": "0x2",
            "chainId": "0x13882"
          },
          "additionalContracts": [],
          "isFixedGasLimit": false
        },
        {
          "hash": null,
          "transactionType": "CALL",
          "contractName": null,
          "contractAddress": "0xcf06f7bc9d3cd7b068f059ab4c19f237f3a40f8c",
          "function": "setPeer(uint32,bytes32)",
          "arguments": [
            "40231",
            "0x000000000000000000000000cf06f7bc9d3cd7b068f059ab4c19f237f3a40f8c"
          ],
          "transaction": {
            "from": "0x8888111f8d7b999009a88224ce5acfc8fa500ddc",
            "to": "0xcf06f7bc9d3cd7b068f059ab4c19f237f3a40f8c",
            "gas": "0x1102d",
            "value": "0x0",
            "input": "0x3400288b0000000000000000000000000000000000000000000000000000000000009d27000000000000000000000000cf06f7bc9d3cd7b068f059ab4c19f237f3a40f8c",
            "nonce": "0x3",
            "chainId": "0x13882"
          },
          "additionalContracts": [],
          "isFixedGasLimit": false
        },
        {
          "hash": null,
          "transactionType": "CALL",
          "contractName": null,
          "contractAddress": "0xcf06f7bc9d3cd7b068f059ab4c19f237f3a40f8c",
          "function": "setPeer(uint32,bytes32)",
          "arguments": [
            "40232",
            "0x000000000000000000000000cf06f7bc9d3cd7b068f059ab4c19f237f3a40f8c"
          ],
          "transaction": {
            "from": "0x8888111f8d7b999009a88224ce5acfc8fa500ddc",
            "to": "0xcf06f7bc9d3cd7b068f059ab4c19f237f3a40f8c",
            "gas": "0x1102d",
            "value": "0x0",
            "input": "0x3400288b0000000000000000000000000000000000000000000000000000000000009d28000000000000000000000000cf06f7bc9d3cd7b068f059ab4c19f237f3a40f8c",
            "nonce": "0x4",
            "chainId": "0x13882"
          },
          "additionalContracts": [],
          "isFixedGasLimit": false
        },
        {
          "hash": null,
          "transactionType": "CALL",
          "contractName": null,
          "contractAddress": "0xcf06f7bc9d3cd7b068f059ab4c19f237f3a40f8c",
          "function": "setPeer(uint32,bytes32)",
          "arguments": [
            "40322",
            "0x000000000000000000000000cf06f7bc9d3cd7b068f059ab4c19f237f3a40f8c"
          ],
          "transaction": {
            "from": "0x8888111f8d7b999009a88224ce5acfc8fa500ddc",
            "to": "0xcf06f7bc9d3cd7b068f059ab4c19f237f3a40f8c",
            "gas": "0x1102d",
            "value": "0x0",
            "input": "0x3400288b0000000000000000000000000000000000000000000000000000000000009d82000000000000000000000000cf06f7bc9d3cd7b068f059ab4c19f237f3a40f8c",
            "nonce": "0x5",
            "chainId": "0x13882"
          },
          "additionalContracts": [],
          "isFixedGasLimit": false
        }
      ],
      "receipts": [],
      "libraries": [],
      "pending": [],
      "returns": {},
      "timestamp": 1726926488,
      "chain": 80002,
      "commit": "57dd6ef"
    },
    {
      "transactions": [
        {
          "hash": null,
          "transactionType": "CALL",
          "contractName": null,
          "contractAddress": "0xcf06f7bc9d3cd7b068f059ab4c19f237f3a40f8c",
          "function": "setPeer(uint32,bytes32)",
          "arguments": [
            "40161",
            "0x00000000000000000000000011545fe290a922c557274d4b53ef3880175d40d8"
          ],
          "transaction": {
            "from": "0x8888111f8d7b999009a88224ce5acfc8fa500ddc",
            "to": "0xcf06f7bc9d3cd7b068f059ab4c19f237f3a40f8c",
            "gas": "0x1102d",
            "value": "0x0",
            "input": "0x3400288b0000000000000000000000000000000000000000000000000000000000009ce100000000000000000000000011545fe290a922c557274d4b53ef3880175d40d8",
            "nonce": "0x1",
            "chainId": "0xaa37dc"
          },
          "additionalContracts": [],
          "isFixedGasLimit": false
        },
        {
          "hash": null,
          "transactionType": "CALL",
          "contractName": null,
          "contractAddress": "0xcf06f7bc9d3cd7b068f059ab4c19f237f3a40f8c",
          "function": "setPeer(uint32,bytes32)",
          "arguments": [
            "40245",
            "0x0000000000000000000000004cd5d8ec1e9c3909d14f378f3348f3ab0a04e172"
          ],
          "transaction": {
            "from": "0x8888111f8d7b999009a88224ce5acfc8fa500ddc",
            "to": "0xcf06f7bc9d3cd7b068f059ab4c19f237f3a40f8c",
            "gas": "0x1102d",
            "value": "0x0",
            "input": "0x3400288b0000000000000000000000000000000000000000000000000000000000009d350000000000000000000000004cd5d8ec1e9c3909d14f378f3348f3ab0a04e172",
            "nonce": "0x2",
            "chainId": "0xaa37dc"
          },
          "additionalContracts": [],
          "isFixedGasLimit": false
        },
        {
          "hash": null,
          "transactionType": "CALL",
          "contractName": null,
          "contractAddress": "0xcf06f7bc9d3cd7b068f059ab4c19f237f3a40f8c",
          "function": "setPeer(uint32,bytes32)",
          "arguments": [
            "40231",
            "0x000000000000000000000000cf06f7bc9d3cd7b068f059ab4c19f237f3a40f8c"
          ],
          "transaction": {
            "from": "0x8888111f8d7b999009a88224ce5acfc8fa500ddc",
            "to": "0xcf06f7bc9d3cd7b068f059ab4c19f237f3a40f8c",
            "gas": "0x1102d",
            "value": "0x0",
            "input": "0x3400288b0000000000000000000000000000000000000000000000000000000000009d27000000000000000000000000cf06f7bc9d3cd7b068f059ab4c19f237f3a40f8c",
            "nonce": "0x3",
            "chainId": "0xaa37dc"
          },
          "additionalContracts": [],
          "isFixedGasLimit": false
        },
        {
          "hash": null,
          "transactionType": "CALL",
          "contractName": null,
          "contractAddress": "0xcf06f7bc9d3cd7b068f059ab4c19f237f3a40f8c",
          "function": "setPeer(uint32,bytes32)",
          "arguments": [
            "40267",
            "0x000000000000000000000000cf06f7bc9d3cd7b068f059ab4c19f237f3a40f8c"
          ],
          "transaction": {
            "from": "0x8888111f8d7b999009a88224ce5acfc8fa500ddc",
            "to": "0xcf06f7bc9d3cd7b068f059ab4c19f237f3a40f8c",
            "gas": "0x1102d",
            "value": "0x0",
            "input": "0x3400288b0000000000000000000000000000000000000000000000000000000000009d4b000000000000000000000000cf06f7bc9d3cd7b068f059ab4c19f237f3a40f8c",
            "nonce": "0x4",
            "chainId": "0xaa37dc"
          },
          "additionalContracts": [],
          "isFixedGasLimit": false
        },
        {
          "hash": null,
          "transactionType": "CALL",
          "contractName": null,
          "contractAddress": "0xcf06f7bc9d3cd7b068f059ab4c19f237f3a40f8c",
          "function": "setPeer(uint32,bytes32)",
          "arguments": [
            "40322",
            "0x000000000000000000000000cf06f7bc9d3cd7b068f059ab4c19f237f3a40f8c"
          ],
          "transaction": {
            "from": "0x8888111f8d7b999009a88224ce5acfc8fa500ddc",
            "to": "0xcf06f7bc9d3cd7b068f059ab4c19f237f3a40f8c",
            "gas": "0x1102d",
            "value": "0x0",
            "input": "0x3400288b0000000000000000000000000000000000000000000000000000000000009d82000000000000000000000000cf06f7bc9d3cd7b068f059ab4c19f237f3a40f8c",
            "nonce": "0x5",
            "chainId": "0xaa37dc"
          },
          "additionalContracts": [],
          "isFixedGasLimit": false
        }
      ],
      "receipts": [],
      "libraries": [],
      "pending": [],
      "returns": {},
      "timestamp": 1726926489,
      "chain": 11155420,
      "commit": "57dd6ef"
    },
    {
      "transactions": [
        {
          "hash": null,
          "transactionType": "CALL",
          "contractName": null,
          "contractAddress": "0xcf06f7bc9d3cd7b068f059ab4c19f237f3a40f8c",
          "function": "setPeer(uint32,bytes32)",
          "arguments": [
            "40161",
            "0x00000000000000000000000011545fe290a922c557274d4b53ef3880175d40d8"
          ],
          "transaction": {
            "from": "0x8888111f8d7b999009a88224ce5acfc8fa500ddc",
            "to": "0xcf06f7bc9d3cd7b068f059ab4c19f237f3a40f8c",
            "gas": "0x1102d",
            "value": "0x0",
            "input": "0x3400288b0000000000000000000000000000000000000000000000000000000000009ce100000000000000000000000011545fe290a922c557274d4b53ef3880175d40d8",
            "nonce": "0x1",
            "chainId": "0xafa"
          },
          "additionalContracts": [],
          "isFixedGasLimit": false
        },
        {
          "hash": null,
          "transactionType": "CALL",
          "contractName": null,
          "contractAddress": "0xcf06f7bc9d3cd7b068f059ab4c19f237f3a40f8c",
          "function": "setPeer(uint32,bytes32)",
          "arguments": [
            "40245",
            "0x0000000000000000000000004cd5d8ec1e9c3909d14f378f3348f3ab0a04e172"
          ],
          "transaction": {
            "from": "0x8888111f8d7b999009a88224ce5acfc8fa500ddc",
            "to": "0xcf06f7bc9d3cd7b068f059ab4c19f237f3a40f8c",
            "gas": "0x1102d",
            "value": "0x0",
            "input": "0x3400288b0000000000000000000000000000000000000000000000000000000000009d350000000000000000000000004cd5d8ec1e9c3909d14f378f3348f3ab0a04e172",
            "nonce": "0x2",
            "chainId": "0xafa"
          },
          "additionalContracts": [],
          "isFixedGasLimit": false
        },
        {
          "hash": null,
          "transactionType": "CALL",
          "contractName": null,
          "contractAddress": "0xcf06f7bc9d3cd7b068f059ab4c19f237f3a40f8c",
          "function": "setPeer(uint32,bytes32)",
          "arguments": [
            "40231",
            "0x000000000000000000000000cf06f7bc9d3cd7b068f059ab4c19f237f3a40f8c"
          ],
          "transaction": {
            "from": "0x8888111f8d7b999009a88224ce5acfc8fa500ddc",
            "to": "0xcf06f7bc9d3cd7b068f059ab4c19f237f3a40f8c",
            "gas": "0x1102d",
            "value": "0x0",
            "input": "0x3400288b0000000000000000000000000000000000000000000000000000000000009d27000000000000000000000000cf06f7bc9d3cd7b068f059ab4c19f237f3a40f8c",
            "nonce": "0x3",
            "chainId": "0xafa"
          },
          "additionalContracts": [],
          "isFixedGasLimit": false
        },
        {
          "hash": null,
          "transactionType": "CALL",
          "contractName": null,
          "contractAddress": "0xcf06f7bc9d3cd7b068f059ab4c19f237f3a40f8c",
          "function": "setPeer(uint32,bytes32)",
          "arguments": [
            "40267",
            "0x000000000000000000000000cf06f7bc9d3cd7b068f059ab4c19f237f3a40f8c"
          ],
          "transaction": {
            "from": "0x8888111f8d7b999009a88224ce5acfc8fa500ddc",
            "to": "0xcf06f7bc9d3cd7b068f059ab4c19f237f3a40f8c",
            "gas": "0x1102d",
            "value": "0x0",
            "input": "0x3400288b0000000000000000000000000000000000000000000000000000000000009d4b000000000000000000000000cf06f7bc9d3cd7b068f059ab4c19f237f3a40f8c",
            "nonce": "0x4",
            "chainId": "0xafa"
          },
          "additionalContracts": [],
          "isFixedGasLimit": false
        },
        {
          "hash": null,
          "transactionType": "CALL",
          "contractName": null,
          "contractAddress": "0xcf06f7bc9d3cd7b068f059ab4c19f237f3a40f8c",
          "function": "setPeer(uint32,bytes32)",
          "arguments": [
            "40232",
            "0x000000000000000000000000cf06f7bc9d3cd7b068f059ab4c19f237f3a40f8c"
          ],
          "transaction": {
            "from": "0x8888111f8d7b999009a88224ce5acfc8fa500ddc",
            "to": "0xcf06f7bc9d3cd7b068f059ab4c19f237f3a40f8c",
            "gas": "0x1102d",
            "value": "0x0",
            "input": "0x3400288b0000000000000000000000000000000000000000000000000000000000009d28000000000000000000000000cf06f7bc9d3cd7b068f059ab4c19f237f3a40f8c",
            "nonce": "0x5",
            "chainId": "0xafa"
          },
          "additionalContracts": [],
          "isFixedGasLimit": false
        }
      ],
      "receipts": [],
      "libraries": [],
      "pending": [],
      "returns": {},
      "timestamp": 1726926489,
      "chain": 2810,
      "commit": "57dd6ef"
    }
  ],
  "timestamp": 1726926542
}