{
  "deployments": [
    {
      "transactions": [
        {
          "hash": "0xc5c82e6a3a449ad8d32a8ab44e3b7da9d35b5b49c58369014183a9f64a88675b",
          "transactionType": "CALL",
          "contractName": null,
          "contractAddress": "0xcf06f7bc9d3cd7b068f059ab4c19f237f3a40f8c",
          "function": "setPeer(uint32,bytes32)",
          "arguments": [
            "40245",
            "0x000000000000000000000000cf06f7bc9d3cd7b068f059ab4c19f237f3a40f8c"
          ],
          "transaction": {
            "from": "0x8888111f8d7b999009a88224ce5acfc8fa500ddc",
            "to": "0xcf06f7bc9d3cd7b068f059ab4c19f237f3a40f8c",
            "gas": "0x95ae",
            "value": "0x0",
            "input": "0x3400288b0000000000000000000000000000000000000000000000000000000000009d35000000000000000000000000cf06f7bc9d3cd7b068f059ab4c19f237f3a40f8c",
            "nonce": "0x2",
            "chainId": "0xaa36a7"
          },
          "additionalContracts": [],
          "isFixedGasLimit": false
        }
      ],
      "receipts": [
        {
          "status": "0x1",
          "cumulativeGasUsed": "0x10db574",
          "logs": [
            {
              "address": "0xcf06f7bc9d3cd7b068f059ab4c19f237f3a40f8c",
              "topics": [
                "0x238399d427b947898edb290f5ff0f9109849b1c3ba196a42e35f00c50a54b98b"
              ],
              "data": "0x0000000000000000000000000000000000000000000000000000000000009d35000000000000000000000000cf06f7bc9d3cd7b068f059ab4c19f237f3a40f8c",
              "blockHash": "0x7cd39ec24ff8baee7838fb7807eac539837c3662706d9cece9b9bcb68bd76d58",
              "blockNumber": "0x66a927",
              "transactionHash": "0xc5c82e6a3a449ad8d32a8ab44e3b7da9d35b5b49c58369014183a9f64a88675b",
              "transactionIndex": "0x84",
              "logIndex": "0xea",
              "removed": false
            }
          ],
          "logsBloom": "0x00000000000000000000000000000000000000000000000000000000000000000000000000000000000000000000000000000000200000000800000000000000000000000000000000000000000000000000000000000000000000000000000000000010001000000000000000000000000000000000000000000000000000000000000000000000000000000000000000000000000000000000000000000000000000000000000000000000000000000000000000000000000002000000000000000000000000000000000000000000000000000000000000040000000000000000000000000000000000000000000000000000000000000000000000000000",
          "type": "0x2",
          "transactionHash": "0xc5c82e6a3a449ad8d32a8ab44e3b7da9d35b5b49c58369014183a9f64a88675b",
          "transactionIndex": "0x84",
          "blockHash": "0x7cd39ec24ff8baee7838fb7807eac539837c3662706d9cece9b9bcb68bd76d58",
          "blockNumber": "0x66a927",
          "gasUsed": "0x6c5f",
          "effectiveGasPrice": "0x5cd20f74a",
          "from": "0x8888111f8d7b999009a88224ce5acfc8fa500ddc",
          "to": "0xcf06f7bc9d3cd7b068f059ab4c19f237f3a40f8c",
          "contractAddress": null
        }
      ],
      "libraries": [],
      "pending": [],
      "returns": {},
      "timestamp": 1726846859,
      "chain": 11155111,
      "commit": "4e563d5"
    },
    {
      "transactions": [
        {
          "hash": null,
          "transactionType": "CALL",
          "contractName": null,
          "contractAddress": "0xcf06f7bc9d3cd7b068f059ab4c19f237f3a40f8c",
          "function": "setPeer(uint32,bytes32)",
          "arguments": [
            "40161",
            "0x000000000000000000000000cf06f7bc9d3cd7b068f059ab4c19f237f3a40f8c"
          ],
          "transaction": {
            "from": "0x8888111f8d7b999009a88224ce5acfc8fa500ddc",
            "to": "0xcf06f7bc9d3cd7b068f059ab4c19f237f3a40f8c",
            "gas": "0x1102d",
            "value": "0x0",
            "input": "0x3400288b0000000000000000000000000000000000000000000000000000000000009ce1000000000000000000000000cf06f7bc9d3cd7b068f059ab4c19f237f3a40f8c",
            "nonce": "0x1",
            "chainId": "0x14a34"
          },
          "additionalContracts": [],
          "isFixedGasLimit": false
        }
      ],
      "receipts": [],
      "libraries": [],
      "pending": [],
      "returns": {},
      "timestamp": 1726846860,
      "chain": 84532,
      "commit": "4e563d5"
    }
  ],
  "timestamp": 1726846876
}